:0400000038EF00F0E5
:100008005482FACF03F0FBCF04F0D9CF05F0DACF52
:1000180006F0F2AC1FD00E01C5B9CDA908D001D8A1
:1000280019D00500FA6E3D50FD6E3E500AD0C5BB92
:10003800CDAB0BD001D80ED00500FA6E3B50FD6E4B
:100048003C50FE6EFF6AFA501200C3B1CBA102D039
:1000580079EC17F006C0DAFF05C0D9FF04C0FBFF32
:0C00680003C0FAFF54921100EDEF14F0F9
:100F00000022400100FCFF050010001C0026002C00
:100F1000002C0026001C0010000500FCFF0048EC1F
:100F200017F0F28EF28C000E01015E6F000E5F6F03
:100F3000300E576F000E566F0F0E596F5869000E26
:100F4000686F000E696F000EEF6F000EF06F000EFD
:100F5000F16F000EF26F300E546F560E556F848095
:100F6000878084884C0E076E2F0E086E07EC18F0F1
:100F7000BE0E076E2F0E086EF3EC17F0000E9EECFF
:100F800014F0030E326E080E316E770EE82EFED787
:100F9000312EFCD7322EFAD700F021EEE3F011EE1D
:100FA00000F00B0EDBCFE3FFE806FCE221EED7F00A
:100FB00011EE0CF00B0EDBCFE3FFE806FCE221EEB6
:100FC00018F00B0EDE6AE806FDE220EE40F011EEAE
:100FD00024F00B0EDBCFE3FFE806FCE220EEDCF0B2
:100FE00011EE30F00B0EDBCFE3FFE806FCE221EE62
:100FF0003CF00B0EDE6AE806FDE220EED0F011EECA
:1010000048F00B0EDBCFE3FFE806FCE2000E076EB4
:10101000010E086E0C0E096E010E0A6E180E0B6E94
:10102000010E0C6E240E0D6E010E0E6E300E0F6E44
:10103000010E106E3C0E116E010E126E480E136EF4
:10104000010E146E740E156E010E166EB1EC10F0DA
:10105000F10EBD6EC20EBC6E0101F651D8B40BD0BC
:10106000000EF66FF5C1D4F1C80E076E010E086EC2
:10107000EFEC13F05D6F5D51D8B45BD0000E5D6F87
:10108000000E6F6F000E706F000E716F000E726FAA
:10109000000E6B6F010E6A6FD251FE0F736F7351AA
:1010A000D8B445D0C80E7325D96EDA6A010EDA229B
:1010B000DF50316E3150076E086A6AC109F06BC1AA
:1010C0000AF022EC17F007C00DF008C00EF00F6A0E
:1010D000106A000E8AEC12F00DC01BF00EC01CF05E
:1010E0000FC01DF010C01EF06FC11FF070C120F0C6
:1010F00071C121F072C122F0E7EC0DF01BC06FF15D
:101100001CC070F11DC071F11EC072F16AC107F000
:101110006BC108F0000E0A6E0A0E096E22EC17F081
:1011200007C06AF108C06BF101017307B8D7010E5F
:101130005E6F5E51D8B412D06FC113F070C114F05D
:1011400071C115F072C116F003EC0AF001016E6F67
:101150006EC1BDFF000E5E6F010E5F6F5F51D8B4B0
:1011600012D06FC12AF070C12BF071C12CF072C186
:101170002DF06EC12EF029EC0CF001015C6F5CC10A
:10118000BCFF000E5F6FF751D8B466D7000EF76F43
:1011900084A002D0010E01D0000EFF0A316E8450EF
:1011A0003118FE0B3118846EF3C11DF0F4C11EF02E
:1011B000E9EC11F01DC060F11EC061F11FC062F1C9
:1011C00020C063F10101585160155A6F59516115E2
:1011D0005B6F5A5156256C6F5B5157216D6F6CC117
:1011E00069F16DC168F18790680E086E010E096E95
:1011F000000E0B6E020E0A6E0BEC17F0850EE82E39
:10120000FED700F0878000D000D000D000D08498B6
:1012100000D000D000D000D08488F3C1D5F1F4C153
:10122000D6F1D5C107F0D6C108F0000E0A6E0A0E3D
:10123000096E40EC16F007500101676FD5C107F049
:10124000D6C108F0000E0A6E0A0E096E82EC15F087
:1012500007C0D5F108C0D6F1D5C107F0D6C108F056
:10126000000E0A6E0A0E096E40EC16F007500101DE
:10127000666FD5C107F0D6C108F0000E0A6E0A0EDF
:10128000096E82EC15F007C0D5F108C0D6F1D5C1C2
:1012900007F0D6C108F0000E0A6E0A0E096E40EC87
:1012A00016F007500101656FD5C107F0D6C108F0EF
:1012B000000E0A6E0A0E096E82EC15F007C0D5F119
:1012C00008C0D6F1D5C107F0D6C108F0000E0A6EED
:1012D0000A0E096E40EC16F007500101646F60C100
:1012E000D5F161C1D6F1D5C107F0D6C108F0000E25
:1012F0000A6E0A0E096E40EC16F007500101F26FFB
:10130000D5C107F0D6C108F0000E0A6E0A0E096EAC
:1013100082EC15F007C0D5F108C0D6F1D5C107F0B1
:10132000D6C108F0000E0A6E0A0E096E40EC16F0E7
:1013300007500101F16FD5C107F0D6C108F0000ECA
:101340000A6E0A0E096E82EC15F007C0D5F108C0CE
:10135000D6F1D5C107F0D6C108F0000E0A6E0A0E0C
:10136000096E40EC16F007500101F06FD5C107F08F
:10137000D6C108F0000E0A6E0A0E096E82EC15F056
:1013800007C0D5F108C0D6F1D5C107F0D6C108F025
:10139000000E0A6E0A0E096E40EC16F007500101AD
:1013A000EF6F2D0EF1EC16F001016451300FF1ECEE
:1013B00016F001016551300FF1EC16F00101665194
:1013C000300FF1EC16F001016751300FF1EC16F01F
:1013D0002C0EF1EC16F00101EF51300FF1EC16F08C
:1013E0000101F051300FF1EC16F00101F151300F15
:1013F000F1EC16F00101F251300FF1EC16F00D0E88
:10140000F1EC16F029D6F00E176E000E076E000EE6
:10141000086E800E096E450E0A6E13C00BF014C0E4
:101420000CF015C00DF016C00EF02AEC13F0D8A089
:1014300016D013C007F014C008F015C009F016C08C
:101440000AF0000E0B6E000E0C6EFA0E0D6E430EBF
:101450000E6E2AEC13F0D8A002D0F00E176E000E1C
:10146000076E000E086E000E096E460E0A6E13C05F
:101470000BF014C00CF015C00DF016C00EF02AECE5
:1014800013F0D8A016D0000E076E000E086E800E66
:10149000096E450E0A6E13C00BF014C00CF015C097
:1014A0000DF016C00EF02AEC13F0D8B002D0F10EF9
:1014B000176E000E076E000E086E400E096E460E87
:1014C0000A6E13C00BF014C00CF015C00DF016C05E
:1014D0000EF02AEC13F0D8A016D0000E076E000E06
:1014E000086E000E096E460E0A6E13C00BF014C093
:1014F0000CF015C00DF016C00EF02AEC13F0D8B0A9
:1015000002D0F20E176E000E076E000E086E800EEF
:10151000096E460E0A6E13C00BF014C00CF015C015
:101520000DF016C00EF02AEC13F0D8A016D0000E65
:10153000076E000E086E400E096E460E0A6E13C04E
:101540000BF014C00CF015C00DF016C00EF02AEC14
:1015500013F0D8B002D0F30E176E000E076E000E17
:10156000086EA00E096E460E0A6E13C00BF014C072
:101570000CF015C00DF016C00EF02AEC13F0D8A038
:1015800016D0000E076E000E086E800E096E460E15
:101590000A6E13C00BF014C00CF015C00DF016C08D
:1015A0000EF02AEC13F0D8B002D0F40E176E000E35
:1015B000076E000E086EC00E096E460E0A6E13C04E
:1015C0000BF014C00CF015C00DF016C00EF02AEC94
:1015D00013F0D8A016D0000E076E000E086EA00EF5
:1015E000096E460E0A6E13C00BF014C00CF015C045
:1015F0000DF016C00EF02AEC13F0D8B002D0F50EA4
:10160000176E000E076E000E086EE00E096E460E95
:101610000A6E13C00BF014C00CF015C00DF016C00C
:101620000EF02AEC13F0D8A016D0000E076E000EB4
:10163000086EC00E096E460E0A6E13C00BF014C081
:101640000CF015C00DF016C00EF02AEC13F0D8B057
:1016500002D0F60E176E000E076E000E086E000E1A
:10166000096E470E0A6E13C00BF014C00CF015C0C3
:101670000DF016C00EF02AEC13F0D8A016D0000E14
:10168000076E000E086EE00E096E460E0A6E13C05D
:101690000BF014C00CF015C00DF016C00EF02AECC3
:1016A00013F0D8B002D0F70E176E000E076E000EC2
:1016B000086E100E096E470E0A6E13C00BF014C0B0
:1016C0000CF015C00DF016C00EF02AEC13F0D8A0E7
:1016D00016D0000E076E000E086E000E096E470E43
:1016E0000A6E13C00BF014C00CF015C00DF016C03C
:1016F0000EF02AEC13F0D8B002D0F80E176E000EE0
:10170000076E000E086E200E096E470E0A6E13C09B
:101710000BF014C00CF015C00DF016C00EF02AEC42
:1017200013F0D8A016D0000E076E000E086E100E33
:10173000096E470E0A6E13C00BF014C00CF015C0F2
:101740000DF016C00EF02AEC13F0D8B002D0F90E4E
:10175000176E000E076E000E086E300E096E470EF3
:101760000A6E13C00BF014C00CF015C00DF016C0BB
:101770000EF02AEC13F0D8A016D0000E076E000E63
:10178000086E200E096E470E0A6E13C00BF014C0CF
:101790000CF015C00DF016C00EF02AEC13F0D8B006
:1017A00002D0FA0E176E000E076E000E086E400E85
:1017B000096E470E0A6E13C00BF014C00CF015C072
:1017C0000DF016C00EF02AEC13F0D8A016D0000EC3
:1017D000076E000E086E300E096E470E0A6E13C0BB
:1017E0000BF014C00CF015C00DF016C00EF02AEC72
:1017F00013F0D8B002D0FB0E176E000E076E500E1D
:10180000086E430E096E470E0A6E13C00BF014C02B
:101810000CF015C00DF016C00EF02AEC13F0D8A095
:1018200016D0000E076E000E086E300E096E470EC1
:101830000A6E13C00BF014C00CF015C00DF016C0EA
:101840000EF02AEC13F0D8B002D0FC0E176E175031
:101850001200000E2F6EF00E2E18D8A41ED0000E0F
:101860000B6E000E0C6E800E0D6E410E0E6E2AC0B9
:1018700007F02BC008F02CC009F02DC00AF06DEC69
:101880000FF007C020F008C021F009C022F00AC004
:1018900023F092EC13F020502F6EF10E2E18D8A4E6
:1018A0001ED0000E0B6E000E0C6E000E0D6E420E62
:1018B0000E6E2AC007F02BC008F02CC009F02DC016
:1018C0000AF06DEC0FF007C020F008C021F009C04D
:1018D00022F00AC023F092EC13F020502F6EF20E8B
:1018E0002E18D8A41ED0000E0B6E000E0C6E400EEB
:1018F0000D6E420E0E6E2AC007F02BC008F02CC0F1
:1019000009F02DC00AF06DEC0FF007C020F008C000
:1019100021F009C022F00AC023F092EC13F020500D
:101920002F6EF30E2E18D8A41ED0000E0B6E000ED4
:101930000C6E800E0D6E420E0E6E2AC007F02BC08C
:1019400008F02CC009F02DC00AF06DEC0FF007C0B4
:1019500020F008C021F009C022F00AC023F092EC68
:1019600013F020502F6EF40E2E18D8A41ED0000EA7
:101970000B6E000E0C6EA00E0D6E420E0E6E2AC087
:1019800007F02BC008F02CC009F02DC00AF06DEC58
:101990000FF007C020F008C021F009C022F00AC0F3
:1019A00023F092EC13F020502F6EF50E2E18D8A4D1
:1019B0001ED0000E0B6E000E0C6EC00E0D6E420E91
:1019C0000E6E2AC007F02BC008F02CC009F02DC005
:1019D0000AF06DEC0FF007C020F008C021F009C03C
:1019E00022F00AC023F092EC13F020502F6EF60E76
:1019F0002E18D8A41ED0000E0B6E000E0C6EE00E3A
:101A00000D6E420E0E6E2AC007F02BC008F02CC0DF
:101A100009F02DC00AF06DEC0FF007C020F008C0EF
:101A200021F009C022F00AC023F092EC13F02050FC
:101A30002F6EF70E2E18D8A41ED0000E0B6E000EBF
:101A40000C6E000E0D6E430E0E6E2AC007F02BC0FA
:101A500008F02CC009F02DC00AF06DEC0FF007C0A3
:101A600020F008C021F009C022F00AC023F092EC57
:101A700013F020502F6EF80E2E18D8A41ED0000E92
:101A80000B6E000E0C6E100E0D6E430E0E6E2AC005
:101A900007F02BC008F02CC009F02DC00AF06DEC47
:101AA0000FF007C020F008C021F009C022F00AC0E2
:101AB00023F092EC13F020502F6EF90E2E18D8A4BC
:101AC0001ED0000E0B6E000E0C6E200E0D6E430E1F
:101AD0000E6E2AC007F02BC008F02CC009F02DC0F4
:101AE0000AF06DEC0FF007C020F008C021F009C02B
:101AF00022F00AC023F092EC13F020502F6EFA0E61
:101B00002E18D8A41ED0000E0B6E000E0C6E300ED8
:101B10000D6E430E0E6E2AC007F02BC008F02CC0CD
:101B200009F02DC00AF06DEC0FF007C020F008C0DE
:101B300021F009C022F00AC023F092EC13F02050EB
:101B40002F6EFB0E2E18D8A41ED0000E0B6E000EAA
:101B50000C6E400E0D6E430E0E6E2AC007F02BC0A9
:101B600008F02CC009F02DC00AF06DEC0FF007C092
:101B700020F008C021F009C022F00AC023F092EC46
:101B800013F020502F6EFC0E2E18D8A41ED0000E7D
:101B90000B6E000E0C6E500E0D6E430E0E6E2AC0B4
:101BA00007F02BC008F02CC009F02DC00AF06DEC36
:101BB0000FF007C020F008C021F009C022F00AC0D1
:101BC00023F092EC13F020502F6E2F5012001E5075
:101BD000800B276E1E501E24296E1DBE29802950A1
:101BE000D8B40DD02928D8A408D0000E1B6E000E42
:101BF0001C6E000E1D6E000E1E6E1D8E06D0000E99
:101C00001B6E000E1C6E000E1D6E000E1E6E22500E
:101C1000800B286E27502818D8A4278C2250222405
:101C2000286E21BE28802850D8B40DD02828D8A4EA
:101C300008D0000E1F6E000E206E000E216E000EEA
:101C4000226E218E06D0000E1F6E000E206E000E3A
:101C5000216E000E226E2950285CD8B022D027AC0D
:101C600002D0800E271A29C02AF028C029F02AC0E5
:101C700028F01BC02AF01FC01BF02AC01FF01CC098
:101C80002AF020C01CF02AC020F01DC02AF021C07C
:101C90001DF02AC021F01EC02AF022C01EF02AC06A
:101CA00022F0000E2A6E295028C023F0246A235EF9
:101CB000000E245A24BE2CD0245004E11A0E235CBA
:101CC000D8A026D01B501C101D101E10D8B402D056
:101CD000010E01D0000E2A6E000E1B6E000E1C6E4F
:101CE000000E1D6E000E1E6E28C029F015D02AA011
:101CF00005D0D8902A3001092A6E02D0D8902A3215
:101D00001BB02A8E1E341E321D321C321B32292A71
:101D10002850295CD8A0EBD727BC28D02950D8A4BC
:101D200009D0000E1B6E000E1C6E000E1D6E000E04
:101D30001E6E12001F501B2620501C2221501D22F7
:101D400022501E221EA071D02AA005D0D8902A3081
:101D500001092A6E02D0D8902A321BB02A8E1E3476
:101D60001E321D321C321B32292A5FD01F501B5CD1
:101D700020501C5821501D581E50800A236E22509E
:101D8000800A2358D8B025D01B501F5C236E1C50EE
:101D90002058246E1D502158256E1E502258266E44
:101DA000FF0E23241B6EFF0E24201C6EFF0E252029
:101DB0001D6EFF0E26201E6E800E271A2A6C2A50DA
:101DC000D8A40FD0010E1B26000E1C221D221E229D
:101DD00008D01F501B5E20501C5A21501D5A225003
:101DE0001E5A1B501C101D101E10D8A41CD02A50A7
:101DF000D8A419D0000E1B6E000E1C6E000E1D6EB6
:101E0000000E1E6E1200D8901B361C361D361E3674
:101E10002ABE1B802AA002D0D88001D0D8902A36B2
:101E20002950D8A429061DAEEED7000E286E2AAE82
:101E30000BD02AC023F07F0E2316D8B403D0010E96
:101E4000286E02D01BB0FBD72850D8B420D0010E8A
:101E50001B26000E1C221D221E221EA018D01BC0F5
:101E600023F01CC024F01DC025F01EC026F026342F
:101E7000263225322432233223C01BF024C01CF02A
:101E800025C01DF026C01EF02928D8A4292A2928FB
:101E9000D8B403D02950D8A40DD0000E1B6E000E6C
:101EA0001C6E000E1D6E000E1E6E2950D8A402D0AE
:101EB000000E276E29A002D01D8E01D01D9ED89045
:101EC00029301E6E27BE1E8E1BC01BF01CC01CF0CE
:101ED0001DC01DF01EC01EF012000A50800B176EB0
:101EE0000A500A241E6E09BE1E801E50D8B40DD0A2
:101EF0001E28D8A408D0000E076E000E086E000E33
:101F0000096E000E0A6E098E06D0000E076E000ED6
:101F1000086E000E096E000E0A6E0E50800B171A26
:101F20000E500E241F6E0DBE1F801F50D8B40DD052
:101F30001F28D8A408D0000E0B6E000E0C6E000EE9
:101F40000D6E000E0E6E0D8E06D0000E0B6E000E86
:101F50000C6E000E0D6E000E0E6E0B500C100D1060
:101F60000E10D8A417D0000E076E000E086E000EDB
:101F7000096E000E0A6E800E09127F0E0A121750AB
:101F80000A1207C007F008C008F009C009F00AC02B
:101F90000AF012001E50D8A409D0000E076E000EE1
:101FA000086E000E096E000E0A6E12001F501EC051
:101FB0000FF0106A0F5E000E105A7F0E0F24186E7D
:101FC000000E1020196E07C013F008C014F009C0ED
:101FD00015F00AC016F0000E076E000E086E000E17
:101FE000096E000E0A6E000E1A6E000E1B6E000EB9
:101FF0001C6E000E1D6E000E1F6E28D01F50D8B430
:1020000011D0D8901336143615361636D8900736B8
:10201000083609360A361DBE0780D8901A361B3698
:102020001C361D360B50135C0C5014580D501558AF
:102030000E501658D8A009D01D8C0B50135E0C50B2
:10204000145A0D50155A0E50165A1F2A190E1F6495
:10205000D5D71350141015101610D8B411D01A80FB
:102060000FD0D8900736083609360A361DBE0780CD
:10207000D8901A361B361C361D361806D8A01906FD
:1020800009AEEFD7000E1F6E1DAE17D0FF0E1A144B
:102090000F6EFF0E1B14106EFF0E1C14116E7F0EC0
:1020A0001D14126E0F50101011101210D8B403D05E
:1020B000010E1F6E02D007B0FBD71F50D8B41FD03F
:1020C000010E0726000E082209220A220AA017D0B4
:1020D00007C00FF008C010F009C011F00AC012F0DC
:1020E00012341232113210320F320FC007F010C00A
:1020F00008F011C009F012C00AF0184A192A19BED6
:1021000010D0195003E11828D8A00BD0000E196E7A
:102110001868000E076E000E086E000E096E000EA5
:102120000A6E19BE05D0195011E11804D8B00ED0AE
:10213000000E196E000E186E000E076E000E086E6F
:10214000000E096E000E0A6E000E176E18C01EF00B
:102150001EA002D0098E01D0099ED8901E300A6EB2
:102160000ED7000E1C6E000E1B6ED8901B34D96E5D
:102170001C34DA6ED890D936DA360750D926085092
:10218000DA22D8901B34E16E1C34E26ED890E1362E
:10219000E2361550E1261650E222DECFE6FFDECF12
:1021A000E6FFDECFE6FFDECFE6FFD8901B34D96E28
:1021B0001C34DA6ED890D936DA360950D9260A504E
:1021C000DA221BC017F01CC018F0D890173618364A
:1021D000D8901736183615C019F016C01AF01750D7
:1021E000192618501A220C0E1924E16E000E1A201E
:1021F000E26EDECFE6FFDECFE6FFDECFE6FFDECF2C
:10220000E6FFD8901B34D96E1C34DA6ED890D936DC
:10221000DA360B50D9260C50DA221BC017F01CC03E
:1022200018F0D89017361836D8901736183615C0CB
:1022300019F016C01AF01750192618501A22180E45
:102240001924E16E000E1A20E26EDECFE6FFDECF2B
:10225000E6FFDECFE6FFDECFE6FFD8901B34D96E77
:102260001C34DA6ED890D936DA360D50D9260E5095
:10227000DA221BC017F01CC018F0D8901736183699
:10228000D8901736183615C019F016C01AF0175026
:10229000192618501A22300E1924E16E000E1A2049
:1022A000E26EDECFE6FFDECFE6FFDECFE6FFDECF7B
:1022B000E6FFD8901B34D96E1C34DA6ED890D9362C
:1022C000DA360F50D9261050DA221BC017F01CC086
:1022D00018F0D89017361836D8901736183615C01B
:1022E00019F016C01AF01750192618501A223C0E71
:1022F0001924E16E000E1A20E26EDECFE6FFDECF7B
:10230000E6FFDECFE6FFDECFE6FFD8901B34D96EC6
:102310001C34DA6ED890D936DA361150D9261250DC
:10232000DA221BC017F01CC018F0D89017361836E8
:10233000D8901736183615C019F016C01AF0175075
:10234000192618501A22480E1924E16E000E1A2080
:10235000E26EDECFE6FFDECFE6FFDECFE6FFDECFCA
:10236000E6FFD8901B34D96E1C34DA6ED890D9367B
:10237000DA361350D9261450DA221BC017F01CC0CD
:1023800018F0D89017361836D8901736183615C06A
:1023900019F016C01AF01750192618501A22240ED8
:1023A0001924E16E000E1A20E26EDECFE6FFDECFCA
:1023B000E6FFDECFE6FFDECFE6FF1B4A1C2A1CBE8F
:1023C000D4D61C5005E1030E1B5CD8B01200CDD64C
:1023D00012004C50020DF350B80FD96EDA6A1DC0CE
:1023E000DEFF1EC0DDFF000E296E000E2A6E000EFD
:1023F0002B6E000E2C6E010E2D6E000E2E6E000E3A
:102400002F6E000E306E2D50020DF3CF21F0FE0E18
:1024100021262150050F226E22C0F6FF0F0EF76E07
:10242000F86A0900F5CF23F00900F5CF24F023C0A6
:1024300011F024C012F0000E12BEFF0E136E146EC7
:102440000C0E0B6E000E0C6E000E0D6E000E0E6E5E
:102450004CC025F04DC026F0000E26BEFF0E276EA4
:10246000286E2D502524076E2E502620086E2F50E2
:102470002720096E305028200A6E48EC14F00750CF
:10248000020DF350B80FD96EDA6ADECF15F0DDCF4A
:1024900016F0000E16BEFF0E176E186EA9EC16F0A1
:1024A0001150292612502A2213502B2214502C226C
:1024B000010E2D26000E2E222F22302230BEA3D751
:1024C00030502F102E1004E10D0E2D5CD8A09BD79C
:1024D000010E4C24076E000E4D20086E000E0A6E91
:1024E0000C0E096E40EC16F007C04CF008C04DF021
:1024F0002AC021F02BC022F02CC023F0246A23BE76
:10250000246821C01DF022C01EF023C01FF024C08B
:1025100020F01200156E1550D8A410AE1AD00DC0C0
:1025200011F00EC012F00FC013F010C014F0111E05
:10253000121E131E141E112A000E12221322142220
:1025400011C017F012C018F013C019F014C01AF01F
:1025500008D00DC017F00EC018F00FC019F010C051
:102560001AF00D500E100F101010D8A409D0000E44
:102570000D6E000E0E6E000E0F6E000E106E12002D
:10258000960E166E06D0162AD8901A3219321832C4
:102590001732000E1714116E000E1814126E000E72
:1025A0001914136EFE0E1A14146E1150121013101B
:1025B0001410D8B40DD0E7D7162A010E1726000E36
:1025C000182219221A22D8901A32193218321732C8
:1025D000000E1714116E000E1814126E000E19144E
:1025E000136EFF0E1A14146E1150121013101410E3
:1025F000D8B407D0E1D71606D89017361836193652
:102600001A3619BE03D0020E1660F5D716A0199E11
:10261000D890163216C011F0126A136A146A11C0EB
:1026200014F0136A126A116A11501712125018121C
:102630001350191214501A121550D8A410AE01D00C
:102640001A8E17C00DF018C00EF019C00FF01AC086
:1026500010F01200000E07140F6E000E0814106E1A
:10266000800E0914116E7F0E0A14126E0F50101096
:1026700011101210D8A408D0000E076E000E086EBC
:10268000000E096E000E0A6E000E0B140F6E000E87
:102690000C14106E800E0D14116E7F0E0E14126E3F
:1026A0000F50101011101210D8A408D0000E0B6E8D
:1026B000000E0C6E000E0D6E000E0E6E0AAE09D0EE
:1026C000076C081ED8B0082A091ED8B0092A800E47
:1026D0000A560EAE09D00B6C0C1ED8B00C2A0D1E7B
:1026E000D8B00D2A800E0E56000E071A000E081ADA
:1026F000000E091A800E0A1A000E0B1A000E0C1A90
:10270000000E0D1A800E0E1A0B50075C0C50085864
:102710000D5009580E500A58D8B002D0D890120067
:10272000D880120022342334296E2950D8A409D02D
:10273000000E206E000E216E000E226E000E236E23
:10274000120020C024F021C025F022C026F023C0B2
:1027500027F0200E05D0D890273226322532243299
:10276000E82EF9D72450286E228EFF0E2016FF0E79
:102770002116FF0E2216000E2316960E295E29AE94
:102780000DD02950800A970FD8A0D2D7D8902332E5
:10279000223221322032293EF9D70DD01F0E296472
:1027A00007D0C6D7D89020362136223623362906C0
:1027B0002950D8A4F7D72850D8B408D0231E221EF9
:1027C000211E206C000E21222222232220C020F074
:1027D00021C021F022C022F023C023F0120020EEFD
:1027E0000CF00750D9260850DA22230EDE18D8A4A0
:1027F00012D020EE0BF00750D9260850DA22010E35
:10280000DF6E20EE0AF00750D9260850DA22000EBB
:10281000DF6E000E0A6E20EE0BF00750D92608502E
:10282000DA22DF50D8B41ED020EE0AF00750D926A5
:102830000850DA22DF50096E09500724D96E000EC5
:102840000820DA6E10EE0CF00750E1260850E22264
:10285000E750D00FDF6E20EE0AF00750D92608505F
:10286000DA22DF2A20EE0CF00750D9260850DA22AF
:102870002A0EDE18D8A40AD020EE0BF00750D92675
:102880000850DA22000EDF6E010E0A6E0A501200A6
:10289000000E106E0AAE0AD00A1E091E081E076C32
:1028A000000E082209220A22010E106E0EAE08D078
:1028B0000E1E0D1E0C1E0B6C000E0C220D220E2285
:1028C0000B500C100D100E10D8B424D0010E0F6E4A
:1028D00006D0D8900B360C360D360E360F2A0EAEBB
:1028E000F8D70B50075C0C5008580D5009580E5083
:1028F0000A58D8A008D00B50075E0C50085A0D504B
:10290000095A0E500A5AD8900E320D320C320B3240
:102910000F2EE7D71050D8B408D00A1E091E081E83
:10292000076C000E082209220A2207C007F008C01F
:1029300008F009C009F00AC00AF012000A6E96BA3F
:1029400012000A50040DF3CF07F0010E07260750BE
:10295000010F086E08C0F6FF0F0EF76EF86A080048
:10296000F5CF95FF0A50040DF350010F076E07C015
:10297000F6FF0F0EF76EF86A0800F5CF96FF000E0F
:10298000976E0A50040DF3CF07F0020E072607508A
:10299000010F086E08C0F6FF0F0EF76EF86A080008
:1029A000F5CF93FF0A50040DF3CF07F0030E07266F
:1029B0000750010F086E08C0F6FF0F0EF76EF86A99
:1029C0000800F5CF09F00946094609468A5009185A
:1029D000F70B09188A6E968A12007E0EF66E2F0E7D
:1029E000F76E000EF86E01EED7F010EE18F0090049
:1029F000F5CFEEFFE550E150FAE1660EF66E2F0ED0
:102A0000F76E000EF86E00EED0F010EE18F0090030
:102A1000F5CFEEFFE550E150FAE1D00EF66E2F0E45
:102A2000F76E000EF86E00EE40F010EE0CF00900AC
:102A3000F5CFEEFFE550E150FAE102EE00F0200E96
:102A4000EE6AE806FDE101EEEFF0090EEE6AE80637
:102A5000FDE100EE60F0700EEE6AE806FDE100EECA
:102A60004CF0080EEE6AE806FDE154905492000125
:102A70008FEF07F0000E876E000E866E000E836EDD
:102A8000000E846E000E856E060E8C6E8868E80E51
:102A9000896E970E8A6E8B680F012669670E216F0B
:102AA0001969070E2E6F1169000E256F000E2D6F2C
:102AB000000E186F000E106F000E206F000E2C6FAE
:102AC000000E0F6F000E176F000E1F6F000E246FA9
:102AD0000E6916691E692369070E2B6F0D6915694A
:102AE0001D6922690F0E2A6F130E0E01B76F170EA4
:102AF000B56F0F0EFA6F100EFC6F090EFD6F140EFE
:102B0000B86F1200000E0C6E0AAE06D0096C0A1ED9
:102B1000D8B00A2A010E0C6E08AE06D0076C081E4B
:102B2000D8B0082A010E0C1A000E0E6E000E0D6EA3
:102B300009500A10D8B41CD0010E0B6E04D0D890E6
:102B400009360A360B2A0AAEFAD7D8900D360E3659
:102B50000950075C0A500858D8A005D00950075EF4
:102B60000A50085A0D80D8900A3209320B2EEDD740
:102B70000C50D8B404D00D6C0E1ED8B00E2A0DC067
:102B800007F00EC008F012005150600FD96EDA6ADB
:102B9000000EDF6E9DA411D05150600FD96EDA6A1D
:102BA0000001DF8201D809D00500FA6E3950FD6EB0
:102BB0003A50FE6EFF6AFA5012009DA211D0515099
:102BC000600FD96EDA6A0001DF8401D809D00500F0
:102BD000FA6E3750FD6E3850FE6EFF6AFA501200E2
:102BE0005150600FD96EDA6ADF50D8B40BD001D8DB
:102BF00012000500FA6E3550FD6E3650FE6EFF6A0B
:102C0000FA50120069EC17F01200C59B880E076E8F
:102C10002B0E086EF3EC17F00E01C5996A0E076EC5
:102C20002E0E086EEEEC17F0080E9F6E900E9D6E45
:102C3000240E9E6E440E9B6E000E9C6E280E076E38
:102C4000300E086EFDEC17F0180E076E300E086E91
:102C5000F8EC17F01E0E076E300E086E02EC18F03E
:102C6000000E4E6E000E536E000E526E200E3F6E22
:102C7000000E516E000E506E000E4F6EC58B12008E
:102C8000000E0C6E08AE06D0076C081ED8B0082ADD
:102C9000010E0C6E0AAE04D0096C0A1ED8B00A2AC6
:102CA00009500A10D8B418D0010E0B6E04D0D89079
:102CB00009360A360B2A0AAEFAD70950075C0A50C1
:102CC0000858D8A004D00950075E0A50085AD89076
:102CD0000A3209320B2EF1D70C50D8B404D0076C4D
:102CE000081ED8B0082A07C007F008C008F0120074
:102CF000000E6A6E000E6B6E000E6C6E000E6D6E36
:102D0000000E686E000E696E000E666E000E0F01FA
:102D10005F6F000E5D6F000E5E6F000E596F000E4C
:102D20005A6F000E5B6F000E656E000E586F040E3A
:102D3000566F180E576F840E606E000E5C6F0E019A
:102D4000CB91C3812A0E076E300E086E07EC18F087
:102D50001200000E196E000E1A6E000E1B6E000E91
:102D60001C6E11A008D01550192616501A221750A3
:102D70001B2218501C22D8901536163617361836D6
:102D8000D890143213321232113211501210131023
:102D90001410D8A4E6D719C011F01AC012F01BC045
:102DA00013F01CC014F012004F50D8B4FDD750508F
:102DB000600FD96EDA6ADF504E6E000E5024D96E65
:102DC000DA6A020EDA22DF50016E502A1F0E5064BA
:102DD00002D0000E506E0E01C59B4F06C58B0150F0
:102DE0001200076E3F50D8B4FDD70E01C5B903D00D
:102DF00007C09AFF0ED0C5995350800FD96EDA6A7A
:102E000007C0DFFF532A1F0E536402D0000E536E1B
:102E10003F06C589120008C00CF009C00DF009D0AA
:102E20000CC0D9FF0DC0DAFFDF50D6EC17F00C4A0A
:102E30000D2A0A06D8A00B060A28F2E10B28D8B4FE
:102E40001200EED707500902F3CF0BF0F4CF0CF0CD
:102E500007500A02F3500C2608500902F3500C26C2
:102E60000BC007F00CC008F01200200E3F600ED01F
:102E70005250800FD96EDA6ADF509A6E522A1F0EB6
:102E8000526402D0000E526E3F2A1200C599120001
:102E900012EC18F098EC17F059EC17F03AEC15F02A
:102EA000CBEC17F078EC16F089EC17F005EC16F087
:102EB0001200130EB76F140EB86F100EFC6F400E99
:102EC000956E220E966E010E936E8A968A9A969A47
:102ED0001200000E5124D96EDA6A020EDA2299CF5E
:102EE000DFFF512A1F0E516402D0000E516E4F2A8F
:102EF0001200CB9133503410D8B4120001D8120014
:102F00000500FA6E3350FD6E3450FE6EFF6AFA50C3
:102F10001200010EBF6E000EBE6E000EC06E7C0E63
:102F2000BC6E000EBB6E0E01CE93F00EBD6E120095
:102F3000000E0E01E16F000EE26F000EE36F000E57
:102F4000E46F000EE56F000EE66F12006450026E33
:102F5000016A635001240101F36F000E0220F46F37
:102F6000010EF76F1200BCB0813E11513C3E0000D3
:102F700000000000803F806FA8BE8846843D0000AE
:102F8000803F48FFE7BE3AC2EE3E0000803F0000AF
:102F900000400000803F600ED86F000EDA6F000E18
:102FA000DC6F060EDE6F000EDD6F1200076E07C0CD
:102FB00092FF0E01CDA1FDD7CD9192501200C4EC2D
:102FC00015F0D4EC16F00101F56F010EF66F12004A
:102FD0000000803F000000400000803F07C03DF03F
:102FE00008C03EF0120007C03BF008C03CF01200E1
:102FF00007C037F008C038F0120007C039F008C029
:103000003AF0120007C035F008C036F0120007C0D1
:1030100033F008C034F012009D989D88120069ECCE
:0C30200017F01200F29A120012001200C9
:020000040020DA
:10000000FF0FFF0FFF0FFF0FFF0FFF0FFF0FFF0F80
:020000040030CA
:0C000000ECFFFFFF9FFFFFFFFFFFFFFF73
:00000001FF
