:1000000080312828080008007E1480310B1F092841
:100010000A2826282100111F0E280F281828200042
:10002000111F1328142818288F310D2780312628F6
:100030002100931D1C281D2826282000931D2128FF
:10004000222826288F311C27803126287E1009007F
:1000500080312A28F901FA012000D6012100BB01D4
:10006000BC01BD01BE01BF01C001C101C201C3018C
:10007000C401C501C6017E1020008331C02B2000C1
:100080002D088039B2003208B7002D35B200320891
:10009000BD00AC1F4C284D284E283D143D080319C7
:1000A0005228532862283D0A031D572858286028E3
:1000B0000030AD000030AC000030AB000030AA00D2
:1000C000AC176A280030AD000030AC000030AB0047
:1000D0000030AA0031088039B2003208B706313545
:1000E000B2003208B800B01F762877287828381474
:1000F000380803197C287D288C28380A031D81289C
:1001000082288A280030B1000030B0000030AF00F3
:100110000030AE00B01794280030B1000030B000BD
:100120000030AF000030AE00380803199828992835
:100130009E283D08031D9D289E28A7280030AD005D
:100140000030AC000030AB000030AA00952A2A082D
:10015000B2003208F30030088F31B62780317408BE
:100160002000C3007308C2004208B200B301B4010A
:10017000B5013508BC003408BB003308BA003208AA
:10018000B9004308B200B301B401B5013508C1009C
:100190003408C0003308BF003208BE002B08B2008C
:1001A0003208F3002F088F31B62780317408200001
:1001B000C3007308C2004208B200B301B401B50124
:1001C0003208B9073308BA3D3408BB3D3508BC3D99
:1001D0004308B200B301B401B5013208BE073308C9
:1001E000BF3D3408C03D3508C13D2C08B20032087F
:1001F000F3002E088F31B627803174082000C30029
:100200007308C2004208B200B301B401B50132085C
:10021000B9073308BA3D3408BB3D3508BC3D430837
:10022000B200B301B401B5013208BE073308BF3DC7
:100230003408C03D3508C13D0830B935BA0DBB0D95
:10024000BC0D890B1D292B08B2003208F3002E08C3
:100250008F31B627803174082000C3007308C200B4
:100260004208B9074308BA3D0030BB3DBC3D2A08EF
:10027000B2003208F3002F088F31B627803174089E
:100280002000C3007308C2004208B9074308BA3D02
:100290000030BB3DBC3D0830B935BA0DBB0DBC0DBF
:1002A000890B4C292A08B2003208F3002E088F313E
:1002B000B627803174082000C3007308C2004208CA
:1002C000B9074308BA3D0030BB3DBC3D2B08B20026
:1002D0003208F30030088F31B627803174082000CF
:1002E000C3007308C2004208BE074308BF3D003088
:1002F000C03DC13D2C08B2003208F3002F088F31F9
:10030000B627803174082000C3007308C200420879
:10031000BE074308BF3D0030C03DC13D2C08B200C0
:100320003208F30030088F31B6278031740820007E
:10033000C3007308C2004208B2004308B300B4010E
:10034000B5010830B235B30DB40DB50D890BA22936
:100350003208BE073308BF3D3408C03D3508C13DF3
:100360003908B2003A08B3003B08B4003C08B500B5
:100370001830B536B40CB30CB20C890BB92932085D
:10038000BE073308BF3D3408C03D3508C13D0830C5
:10039000B935BA0DBB0DBC0D890BC8293D0838070E
:1003A000B200B301B30D3208823EC200FF30333DCC
:1003B000C300F1290130BE35BF0DC00DC10D890B41
:1003C000DB29BC1FE429E529E6293E140130B935B3
:1003D000BA0DBB0DBC0D890BE729FF30C207FF30FA
:1003E000C33DC01FF429F529DA29B801BC1FF9293A
:1003F000FA29162AFF303905B200FF303A05B3005A
:10040000FF303B05B4007F303C05B50035083404AF
:100410003304320403190D2A0E2A112AB801B80A2E
:10042000162A3E1C142A152A162A0E2A38080319E1
:100430001A2A1B2A432A0130BE070030BF3D003074
:10044000C03D0030C13D411C262A272A432A3E08D0
:10045000B2003F08B3004008B4004108B5000130C5
:10046000B600B537B40CB30CB20CB60B312A350854
:10047000C1003408C0003308BF003208BE0001309C
:10048000C2070030C33D4308803AB20080303202D8
:10049000031D4C2AFF304202031C4F2A502A5A2ABD
:1004A0007F302000C1008030C0000030BF0000302D
:1004B000BE00892A20004308803AB2008030320210
:1004C000031D642A013042020318672A682A732A2E
:1004D00000302000C1000030C0000030BF000030FC
:1004E000BE00B701892A20004208B2003208BD00D0
:1004F000FF30BE05FF30BF057F30C0050030C105AD
:100500003D1C832A842A852AC0173D36B200320852
:10051000C1003708B2003208C1044108AD004008EC
:10052000AC003F08AB003E08AA000800F800A02B72
:100530007808063E86008701013081027808063E71
:10054000860087010108031DA62AA72ABA2A0230BD
:10055000F600780886008701760881007808053E55
:10056000860087010108F6007808073E86008701AB
:100570007608810001308F31DA278231780A8600CF
:100580008701010885313F258231BF2B7808073E5E
:1005900086008701013081027808073E86008701C6
:1005A0000108031DD42AD52AE82A0330F60078086A
:1005B00086008701760881007808043E860087015E
:1005C0000108F6007808063E86008701760881005B
:1005D00000308F31DA278231BF2B7808063E860043
:1005E0008701013081027808063E860087010108F4
:1005F000031DFB2AFC2A0F2B0430F6007808860026
:100600008701760881007808053E86008701010889
:10061000F6007808073E86008701760881000230E0
:100620008F31DA2782317808023E8600870101087F
:1006300085313F258231BF2B7808073E8600870130
:10064000013081027808073E860087010108031DFA
:100650002A2B2B2B3E2B0530F600780886008701CD
:10066000760881007808043E860087010108F600BC
:100670007808063E860087017608810000308F31B9
:10068000DA278231BF2B7808063E860087010130C9
:1006900081027808063E860087010108031D512B60
:1006A000522B652B0630F600780886008701760805
:1006B00081007808053E860087010108F600780869
:1006C000073E860087017608810003308F31DA27E4
:1006D00082317808033E86008701010885313F2575
:1006E0008231BF2B7808073E8600870101308102E6
:1006F0007808073E860087010108031D802B812BA7
:10070000922B7808860087018101810A7808043ECF
:10071000860087010108F6007808063E86008701FA
:100720007608810000308F31DA278231BF2B0A3002
:1007300085313F25823102308F31DA278231972B84
:100740007808860087010108F600F7017708003A6B
:100750000319AB2B972B7608013A0319982A033A11
:100760000319C62A013A0319ED2A073A03191C2B6B
:10077000013A0319432B033A0319722B972B0800F4
:100780008F314D2783318B170B17E830F30003307F
:10079000F400AA308F31762783318731F0278331F7
:1007A00021001D081D389D001D089F399D00E03067
:1007B0009E00F301F30AF401F40AF501F50A04308E
:1007C0002000D5005508F600F701F70AB33087314D
:1007D000032783318E31AB268331FF30F3000E3097
:1007E000F4008E31B9268331AE30F3000E30F400C0
:1007F0008E31D126833179080319FF2B002C092C67
:10080000F901AA30863145268331B33082319622F0
:100810008331AA308E31D7268331003A0319112C47
:10082000122C192CAA308E31E92683318E31A5265F
:1008300083318F312B278331003A0319202C212C4F
:10084000662C21003608303E2000D50055082100D6
:10085000A4002C302000D50055082100A500350843
:10086000303E2000D50055082100A6003408303E57
:100870002000D50055082100A7000D302000D5002C
:1008800055082100A9000A302000D5005508210094
:10089000A80024088E31DF268331210025088E31FF
:1008A000DF268331210026088E31DF2683312100A7
:1008B00027088E31DF268331210028088E31DF267C
:1008C0008331210029088E31DF268331200056082C
:1008D00003196B2C6C2CFB2BD60121003C08A100CA
:1008E0003B08A00021082000CE00210020082000A5
:1008F000CD0087317F27833120004E082100A300DF
:1009000020004D082100A20023082000A40021009F
:1009100022082000A300B3308631A5268331FB2BAB
:10092000803128282000A40024080319982C992C31
:10093000AD2CF61F9C2C9D2CAD2C7309A6007409C0
:10094000A7007509A8007609A900A60A0319A70A35
:100950000319A80A0319A90AB52C7608A900750875
:10096000A8007408A7007308A6007608750474042C
:100970007304031DBC2CBD2CC62C0030F6000030C7
:10098000F5000030F4000030F3003E2D9630A0005A
:100990002008A500D62C0130A0002008A5070130B2
:1009A000A936A80CA70CA60C890BD02CFE30290563
:1009B000031DDB2CDC2CCB2CF02C0130A0002008FC
:1009C000A5070130A6070030A73D0030A83D003044
:1009D000A93D0130A936A80CA70CA60C890BEA2C5E
:1009E000FF302905031DF52CF62CDD2C002D0130E0
:1009F000A5020130A635A70DA80DA90D890BFA2C6B
:100A0000A81B032D042D0A2D023025020318092DE1
:100A10000A2DF72C25180D2D0E2D162DFF30A605AD
:100A2000FF30A7057F30A805FF30A9050310A50CEE
:100A30002508A000A101A201A3011830A035A10D35
:100A4000A20DA30D890B1E2D2008A6042108A704C2
:100A50002208A8042308A90424080319302D312DE5
:100A6000362DF61F342D352D362DA9172908F60001
:100A70002808F5002708F4002608F3000800F50010
:100A8000A42D22000C148C140C158C150C168C172C
:100A90000C13CF2D22000C108C140C158C110C1281
:100AA0008C130C13CF2D22000C148C140C118C15EC
:100AB0000C168C130C17CF2D22000C148C140C1553
:100AC0008C150C128C130C17CF2D22000C108C14CB
:100AD0000C158C110C128C170C17CF2D22000C1436
:100AE0008C100C158C150C128C170C17CF2D2200A6
:100AF0000C148C100C158C150C168C170C17CF2D94
:100B000022000C148C140C158C110C128C130C1369
:100B1000CF2D22000C148C140C158C150C168C1770
:100B20000C17CF2D22000C148C140C158C150C12E4
:100B30008C170C17CF2D22000C148C140C158C154F
:100B40000C168C178C17CF2D7508F300F401740860
:100B5000003A0319AC2DCF2D7308003A0319412D2B
:100B6000013A03194A2D033A0319532D013A031987
:100B70005C2D073A0319652D013A03196E2D033ACE
:100B80000319772D013A0319802D0F3A0319892D86
:100B9000013A0319922D033A03199B2DCF2D08001A
:100BA00003102000460D470DC8004808F8007808DB
:100BB000031DDB2DDC2DE52D0030C7000030C60005
:100BC0000030C5000030C400442E4408C800450869
:100BD000C9004608CA004708CB001F30CB36CA0CF4
:100BE000C90CC80C890BEE2D4808CC004C08F70046
:100BF000C617FF30C405FF30C505FF30C6050030FD
:100C0000C7059630F802F81F062E072E1F2E78080B
:100C1000803A973E03180D2E0E2E0F2EDC2D01303C
:100C2000C736C60CC50CC40C890B102E0130C80089
:100C30004808F807031D1D2E1E2E0F2E342E2030BF
:100C40007802031C242E252E2F2EDC2D0130C435D6
:100C5000C50DC60DC70D890B272E0130F802780887
:100C6000031D332E342E262E77080319382E392EE5
:100C7000442EC409C509C609C709C40A0319C50A0F
:100C80000319C60A0319C70A0800F7007708083EC7
:100C900086008701011C4D2E4E2E702E770886008F
:100CA00087010130810241310030813B7F3177087B
:100CB0008600870116000104031D5F2E602E702E32
:100CC0007708083E8600870181147708023E860077
:100CD0008701770884008501403F803F413F813F85
:100CE0007708043E86008701403FF300413FF4004F
:100CF000423FF500433FF600760875047404730420
:100D00000319832E842EA42EFF30F300FF30F4004D
:100D1000FF30F500FF30F6007708043E86008701BB
:100D2000403FF307413FF43D423FF53D433FF63D31
:100D30007708043E860087017308C03F7408C13FEE
:100D40007508C23F7608C33F08002000A6000A309D
:100D5000F3000030F4002408F6002308F500873182
:100D6000BC27863173082000A500260A860087016B
:100D7000250881000A30F3000030F4002408F60052
:100D80002308F50087314227863174082000A4002B
:100D90007308A3000A30F3000030F4002408F600C2
:100DA0002308F5008731BC27863173082000A50091
:100DB0002608023E86008701250881000A30F300DC
:100DC0000030F4002408F6002308F500873142279C
:100DD000863174082000A4007308A3000A30F300D1
:100DE0000030F4002408F6002308F5008731BC2702
:100DF000863173082000A5002608033E860087017F
:100E00002508810008002000A00020088600870136
:100E10008101810A7308F800200A8600870178089A
:100E200081007408F8002008023E860087017808D7
:100E300081007508F8002008033E860087017808C5
:100E400081007608F8002008043E860087017808B3
:100E500081007708F8002008053E860087017808A1
:100E600081007608F8002008063E86008701780891
:100E700081007708F8002008073E8600870178087F
:100E8000810008002000A101A20173087404031965
:100E90004A2F4B2F7A2FA001A00A572F0130F3358C
:100EA000F40D890B4F2F0130F7007708A007F41FCE
:100EB0005A2F5B2F4E2F0130A135A20D890B5C2FCD
:100EC00074087602031D662F73087502031C692FD0
:100ED0006A2F6F2F7308F5027408F63B2114013056
:100EE000F436F30C890B702F0130A002031D792F0B
:100EF0007A2F5B2F2208F4002108F30008003F300E
:100F00002000D2007A30D1000530D000BC30CF00B4
:100F10004D08F3004E08F400F501F601003084316D
:100F20009224873176082000B1007508B00074085B
:100F3000AF007308AE005208AD005108AC00500875
:100F4000AB004F08AA0080313F20873120002D08D8
:100F5000C7002C08C6002B08C5002A08C40085312C
:100F6000D025873120004508D4004408D300540818
:100F7000CE005308CD000800730874040319C12F74
:100F8000C22FEB2FF801F80ACE2F0130F335F40D04
:100F9000890BC62F0130F7007708F807F41FD12F0F
:100FA000D22FC52F74087602031DD82F730875023F
:100FB000031CDB2FDC2FE02F7308F5027408F63BCF
:100FC0000130F436F30C890BE12F0130F802031DD8
:100FD000EA2FEB2FD22F7608F4007508F3000800F3
:100FE000E03021009E009B019C011D309D001117E7
:100FF0000230F3000030F4008E31B926873108004A
:101D4A0021009D14080021009701080028001E1593
:101D5A0008000130F0007008F900080021001C0892
:101D6A00F1001B08F000080074082100BE00730887
:101D7A00BD00080074082100C0007308BF000800F5
:101D8A0074082100C4007308C30008007408210005
:101D9A00C2007308C100080074082100C600730855
:101DAA00C5000800F3007308083E86008701010891
:101DBA0002390800F3002000111EE42EE52EE02E61
:101DCA00730823009A000800F400FD30F300740839
:101DDA00083E8600870173088105080070302100DB
:101DEA00990098012200960121001A1FFD2EFE2E4D
:101DFA00F92E08008E31B3268E3171082100BC00FD
:101E0A007008BB000130F20072082000D6000800FA
:101E1A002000111321003D083E040319152F162F27
:101E2A001B2F3E088A003D080A008F310800200057
:101E3A0093112100450846040319242F252F2A2F20
:101E4A0046088A0045080A008F310800F30120007D
:101E5A00111E302F312F382F23009E1E352F362F7B
:101E6A00382FF301F30A73080800F93028009D009F
:101E7A009C0120009311210093150330F3000030D8
:101E8A00F4008E31D1268F313D3028009E000800A3
:101E9A008F3160278F318E31F3268F318E31A8260C
:101EAA008F318F313A278F318731F0278F318F3138
:101EBA0094278F31080022008C018D0120302100E7
:101ECA008C00E6308D00383023008D001F308C00E6
:101EDA0024008D018C012100951722009D019E018D
:101EEA000800F6007608083E860087010114FD30D6
:101EFA00F5007608083E8600870175088105760890
:101F0A00023E860087017308C03F7408C13F760805
:101F1A00860087017308C03F7408C13F0800083073
:101F2A0023009F0090309D0024309E0040309B008B
:101F3A0003309C000030F3000030F4008E31C526D7
:101F4A008F310030F3000030F4008E31CB268F3110
:101F5A000030F3000030F4008E31BF268F31FA01D1
:101F6A0008002000A400A001A1017308F500F601F1
:101F7A007508A2007608A300241CC42FC52FC92FF8
:101F8A002208A0072308A13D0130A235A30D890B21
:101F9A00CA2F0310A40C2408031DD42FD52FC12F38
:101FAA002108F4002008F3000800F3007303031D5E
:101FBA00DF2FE02FE52F22000D140D128D11FF2FB8
:101FCA0002307306031DEA2FEB2FF02F22000D10AB
:101FDA008D150D12FF2F03307306031DF52FF62FF3
:101FEA00FB2F22000D108D110D16FF2F22000D1050
:061FFA000D128D1108001C
:020000040001F9
:04000E00E43FFF3F8D
:00000001FF
