:10000000803102288731F02F031021009D1C03143A
:100010000030093D0800F60076088600870181015E
:10002000810A7008F500760A86008701750881004C
:100030007108F5007608023E860087017508810088
:100040007208F5007608033E860087017508810076
:100050007308F5007608043E860087017508810064
:100060007408F5007608053E860087017508810052
:100070007308F5007608063E860087017508810042
:100080007408F5007608073E860087017508810030
:1000900008003F302000CA007A30C9000230C80092
:1000A0007530C7004508F0004608F100890D893B0E
:1000B0008909F200F30001308231F922803173089E
:1000C0002000A7007208A6007108A5007008A4000F
:1000D0004A08A3004908A2004808A1004708A00058
:1000E00085319925803120002308BD002208BC00FD
:1000F0002108BB002008BA008131F32180312000A3
:100100003B08CC003A08CB004C08C6004B08C500A1
:100110000800F601F31F8D288E289528F209F309AF
:10012000F20A0319F30AF601F60AF11F9828992832
:100130009E28F009F109F00A0319F10A7008710408
:100140000319A328A428CD28F501F50AB028013009
:10015000F035F10D890BA8280130F4007408F5077B
:10016000F11FB328B428A72871087302031DBA2809
:1001700070087202031CBD28BE28C2287008F20253
:100180007108F33B0130F136F00C890BC3280130C4
:10019000F502031DCC28CD28B42876080319D128F0
:1001A000D228D728F209F309F20A0319F30A7308CF
:1001B000F1007208F0000800FC000A30F000003086
:1001C000F1007A08F3007908F2008031892080314B
:1001D0007008FB007C0A860087017B0881000A30DA
:1001E000F0000030F1007A08F3007908F200813164
:1001F000342180317108FA007008F9000A30F000EB
:100200000030F1007A08F3007908F200803189208B
:1002100080317008FB007C08023E860087017B0865
:1002200081000A30F0000030F1007A08F30079080C
:10023000F2008131342180317108FA007008F90030
:100240000A30F0000030F1007A08F3007908F2007B
:100250008031892080317008FB007C08033E8600D5
:1002600087017B0881000800F601F11F3829392930
:100270004029F009F109F00A0319F10AF601F60A1A
:10028000F31F432944294D29F209F309F20A0319FE
:10029000F30A0130F4007408F606F701F80170085B
:1002A00071040319542955298429F501F50A612996
:1002B0000130F035F10D890B59290130F400740833
:1002C000F507F11F6429652958290130F735F80D24
:1002D000890B662971087302031D70297008720268
:1002E000031C7329742979297008F2027108F33B01
:1002F00077140130F136F00C890B7A290130F502C0
:10030000031D8329842965297608031988298929E9
:100310008E29F709F809F70A0319F80A7808F10095
:100320007708F0000800F4007408083E8600870192
:10033000011C9B299C29BE29740886008701013075
:10034000810241310030813B7F3174088600870192
:1003500016000104031DAD29AE29BE297408083E0C
:100360008600870181147408023E860087017408A4
:1003700084008501403F803F413F813F7408043E37
:1003800086008701403FF000413FF100423FF2000C
:10039000433FF30073087204710470040319D129F8
:1003A000D229F229FF30F000FF30F100FF30F200D7
:1003B000FF30F3007408043E86008701403FF007D9
:1003C000413FF13D423FF23D433FF33D7408043E5F
:1003D000860087017008C03F7108C13F7208C23FA4
:1003E0007308C33F0800031020003C0D3D0DBE0004
:1003F0003E08C4004408031DFE29FF29082A0030D6
:10040000BD000030BC000030BB000030BA00672ADD
:100410003A08BE003B08BF003C08C0003D08C100D0
:100420001F30C136C00CBF0CBE0C890B112A3E0810
:10043000C2004208C300BC17FF30BA05FF30BB053D
:10044000FF30BC050030BD059630C402C41F292A08
:100450002A2A422A4408803A973E0318302A312A31
:10046000322AFF290130BD36BC0CBB0CBA0C890BFB
:10047000332A0130BE003E08C407031D402A412A2A
:10048000322A572A20304402031C472A482A522A7B
:10049000FF290130BA35BB0DBC0DBD0D890B4A2AB1
:1004A0000130C4024408031D562A572A492A43082A
:1004B00003195B2A5C2A672ABA09BB09BC09BD0972
:1004C000BA0A0319BB0A0319BC0A0319BD0A0800BA
:1004D000F200CD2A22000C148C140C158C150C166D
:1004E0008C170C13F82A22000C108C140C158C118C
:1004F0000C128C130C13F82A22000C148C140C11FF
:100500008C150C168C130C17F82A22000C148C1462
:100510000C158C150C128C130C17F82A22000C10D9
:100520008C140C158C110C128C170C17F82A220045
:100530000C148C100C158C150C128C170C17F82A37
:1005400022000C148C100C158C150C168C170C1723
:10055000F82A22000C148C140C158C110C128C131C
:100560000C13F82A22000C148C140C158C150C1684
:100570008C170C17F82A22000C148C140C158C15EF
:100580000C128C170C17F82A22000C148C140C1562
:100590008C110C128C178C17F82A7208F000F101DC
:1005A0007108003A0319D52AF82A7008003A03198D
:1005B0006A2A013A0319732A033A03197C2A013A79
:1005C0000319852A073A03198E2A013A0319972A33
:1005D000033A0319A02A013A0319A92A0F3A031969
:1005E000B22A013A0319BB2A033A0319C42AF82A8A
:1005F0000800F80078080319FE2AFF2A132BF31FBE
:10060000022B032B132B7009FA007109FB007209EE
:10061000FC007309FD00FA0A0319FB0A0319FC0A1E
:100620000319FD0A1B2B7308FD007208FC007108FA
:10063000FB007008FA007308720471047004031D53
:10064000222B232B2C2B0030F3000030F200003043
:10065000F1000030F000A42B9630F4007408F9008B
:100660003C2B0130F4007408F9070130FD36FC0C16
:10067000FB0CFA0C890B362BFE307D05031D412B3C
:10068000422B312B562B0130F4007408F90701304E
:10069000FA070030FB3D0030FC3D0030FD3D0130ED
:1006A000FD36FC0CFB0CFA0C890B502BFF307D0542
:1006B000031D5B2B5C2B432B662B0130F9020130B1
:1006C000FA35FB0DFC0DFD0D890B602BFC1B692B16
:1006D0006A2B702B0230790203186F2B702B5D2B65
:1006E0007918732B742B7C2BFF30FA05FF30FB0538
:1006F0007F30FC05FF30FD050310F90C7908F4008C
:10070000F501F601F7011830F435F50DF60DF70D8A
:10071000890B842B7408FA047508FB047608FC0422
:100720007708FD0478080319962B972B9C2BF31F51
:100730009A2B9B2B9C2BFD177D08F3007C08F20065
:100740007B08F1007A08F00008008F3146278331DA
:10075000E830F0000330F1005A308F316F278331D9
:1007600000308F311D278331E830F0000330F10075
:1007700051308F316F2783318E31E326833104303E
:100780002000CD004D08F0000530CE004E08F100ED
:100790000630CF004F08F2000430D0005008F300BC
:1007A000F401F40A633080310B2083318E31C2268C
:1007B00083318F312A278331003A0319E02BE12B53
:1007C000E92B5A30813193218331633084316F2496
:1007D00083315A308E31EB268331003A0319F12BE5
:1007E000F22B452C5A308F31072783318E31BC26AE
:1007F00083318F3137278331003A0319002C012CC4
:10080000452C20006608303E2100A000003003186F
:100810000130A1002C30A2000030A30020006508A8
:10082000303E2100A400003003180130A500200054
:100830006408303E2100A600003003180130A700F4
:100840000D30AA000030AB000A30A8000030A9002B
:1008500020088E31F3268331210022088E31F326C1
:100860008331210024088E31F326833121002608AC
:100870008E31F3268331210028088E31F32683310F
:1008800021002A088E31F326833180310420833100
:10089000003A03194C2C4D2CD92B8E31C5268331AF
:1008A00071082000EC007008EB006C08C6006B08B3
:1008B000C500803149208331200046082100AD0069
:1008C000200045082100AC002D08FA002C08F90092
:1008D00063308031DC208331D92B80310228F50050
:1008E000792D7508063E8600870101308102750862
:1008F000063E860087010108031D7F2C802C932C67
:100900000230F300750886008701730881007508BE
:10091000053E860087010108F3007508073E860042
:1009200087017308810001308F31D3278431750A24
:10093000860087010108823168228431982D75086C
:10094000073E86008701013081027508073E860058
:1009500087010108031DAD2CAE2CC12C0330F30020
:10096000750886008701730881007508043E8600BB
:1009700087010108F3007508063E860087017308A9
:10098000810000308F31D3278431982D7508063EC1
:1009900086008701013081027508063E86008701C6
:1009A0000108031DD42CD52CE82C0430F300750865
:1009B00086008701730881007508053E860087015F
:1009C0000108F3007508073E86008701730881005F
:1009D00002308F31D32784317508023E86008701AB
:1009E0000108823168228431982D7508073E8600FF
:1009F0008701013081027508073E860087010108E2
:100A0000031D032D042D172D0530F30075088600F6
:100A10008701730881007508043E8600870101087C
:100A2000F3007508063E86008701730881000030D8
:100A30008F31D3278431982D7508063E86008701B3
:100A4000013081027508063E860087010108031DFA
:100A50002A2D2B2D3E2D0630F300750886008701C8
:100A6000730881007508053E860087010108F300C0
:100A70007508073E860087017308810003308F31B7
:100A8000D32784317508033E86008701010882312F
:100A900068228431982D7508073E86008701013051
:100AA00081027508073E860087010108031D592D44
:100AB0005A2D6B2D7508860087018101810A750802
:100AC000043E860087010108F3007508063E860093
:100AD00087017308810000308F31D3278431982D2E
:100AE0000A3082316822843102308F31D327843139
:100AF000702D7508860087010108F300F401740861
:100B0000003A0319842D702D7308013A0319712CD2
:100B1000033A03199F2C013A0319C62C073A03190B
:100B2000F52C013A03191C2D033A03194B2D702D96
:100B30000800200023088039A8002808AD002335CC
:100B4000A8002808B300A21FA62DA72DA82D331496
:100B500033080319AC2DAD2DBC2D330A031DB12D67
:100B6000B22DBA2D0030A3000030A2000030A10049
:100B70000030A000A217C42D0030A3000030A20056
:100B80000030A1000030A00027088039A800280804
:100B9000AD062735A8002808B200A61FD02DD12DFC
:100BA000D22D321432080319D62DD72DE62D320A54
:100BB000031DDB2DDC2DE42D0030A7000030A60046
:100BC0000030A5000030A400A617EE2D0030A700CD
:100BD0000030A6000030A5000030A4003208031940
:100BE000F22DF32DF82D3308031DF72DF82D012ECE
:100BF0000030A3000030A2000030A1000030A000AF
:100C0000EF2F2008A8002808F00026088F318D2734
:100C1000853171082000B9007008B8003808A800B4
:100C2000A901AA01AB012B08B1002A08B0002908CC
:100C3000AF002808AE003908A800A901AA01AB013D
:100C40002B08B7002A08B6002908B5002808B40008
:100C50002108A8002808F00025088F318D2785314C
:100C600071082000B9007008B8003808A800A90170
:100C7000AA01AB012808AE072908AF3D2A08B03DFC
:100C80002B08B13D3908A800A901AA01AB01280829
:100C9000B4072908B53D2A08B63D2B08B73D220800
:100CA000A8002808F00024088F318D2785317108AD
:100CB0002000B9007008B8003808A800A901AA01EE
:100CC000AB012808AE072908AF3D2A08B03D2B0824
:100CD000B13D3908A800A901AA01AB012808B40751
:100CE0002908B53D2A08B63D2B08B73D0830AE357A
:100CF000AF0DB00DB10D890B772E2108A800280883
:100D0000F00024088F318D27853171082000B9004B
:100D10007008B8003808AE073908AF3D0030B03D64
:100D2000B13D2008A8002808F00025088F318D2744
:100D3000853171082000B9007008B8003808AE0786
:100D40003908AF3D0030B03DB13D0830AE35AF0D94
:100D5000B00DB10D890BA62E2008A8002808F000C0
:100D600024088F318D27853171082000B900700863
:100D7000B8003808AE073908AF3D0030B03DB13D8E
:100D80002108A8002808F00026088F318D2785311A
:100D900071082000B9007008B8003808B407390895
:100DA000B53D0030B63DB73D2208A8002808F00048
:100DB00025088F318D27853171082000B900700812
:100DC000B8003808B4073908B53D0030B63DB73D26
:100DD0002208A8002808F00026088F318D278531C9
:100DE00071082000B9007008B8003808A800390858
:100DF000A900AA01AB010830A835A90DAA0DAB0DB9
:100E0000890BFC2E2808B4072908B53D2A08B63DF1
:100E10002B08B73D2E08A8002F08A9003008AA000B
:100E20003108AB001830AB36AA0CA90CA80C890B02
:100E3000132F2808B4072908B53D2A08B63D2B080A
:100E4000B73D0830AE35AF0DB00DB10D890B222F77
:100E500033083207A800A901A90D2808823EB8006E
:100E6000FF30293DB9004B2F0130B435B50DB60D1B
:100E7000B70D890B352FB11F3E2F3F2F402F341454
:100E80000130AE35AF0DB00DB10D890B412FFF30E4
:100E9000B807FF30B93DB61F4E2F4F2F342FB20188
:100EA000B11F532F542F702FFF302E05A800FF3095
:100EB0002F05A900FF303005AA007F303105AB00B7
:100EC0002B082A04290428040319672F682F6B2F85
:100ED000B201B20A702F341C6E2F6F2F702F682F43
:100EE00032080319742F752F9D2F0130B40700307D
:100EF000B53D0030B63D0030B73D371C802F812F07
:100F00009D2F3408A8003508A9003608AA00370824
:100F1000AB000130AC00AB37AA0CA90CA80CAC0B91
:100F20008B2F2B08B7002A08B6002908B50028081F
:100F3000B4000130B8070030B93D3908803AA80044
:100F400080302802031DA62FFF303802031CA92F72
:100F5000AA2FB42F7F302000B7008030B6000030B9
:100F6000B5000030B400E32F20003908803AA80013
:100F700080302802031DBE2F013038020318C12F14
:100F8000C22FCD2F00302000B7000030B600003057
:100F9000B5000030B400AD01E32F20003808A800F0
:100FA0002808B300FF30B405FF30B5057F30B60523
:100FB0000030B705331CDD2FDE2FDF2FB617333699
:100FC000A8002808B7002D08A8002808B70437088B
:100FD000A3003608A2003508A1003408A0000800CC
:100FE0002000EB01EC01ED01EE01A03084000030A7
:100FF000850016308E31DD26873120008331A52B08
:101D780021009D14080021009701080028001E1565
:101D8800080021001C08F1001B08F0000800710879
:101D98002100B1007008B000080071082100B500EA
:101DA8007008B400080071082100B3007008B20080
:101DB8000800640080010131890BDE2E0034603098
:101DC80021009E009B019C0101309D000800F0004D
:101DD8007008083E86008701010802390800F000F3
:101DE8002000111EF82EF92EF42E700823009A00F8
:101DF8000800F93028009D009C01200093113D3017
:101E080028009E000800F100FD30F0007108083E2F
:101E1800860087017008810508007030210099004C
:101E280098012200960121001A1F1B2F1C2F172F23
:101E38000800F1007108F000F00DF00D21001D08F8
:101E48007006833970069D001D14080000302000BC
:101E580093190130F00070080319332F342F352FF0
:101E6800931170080800F0012000111E3C2F3D2F2F
:101E7800442F23009E1E412F422F442FF001F00AC9
:101E8800700808008F3159278F318F3111278F3112
:101E98008E31BF268F318E31FD268F318E31E3266C
:101EA8008F318F31B0278F31080022008C018D01CE
:101EB800203021008C00E6308D00383023008D0062
:101EC8001F308C0024008D018C0121009517220001
:101ED8009D019E010800F3007308083E86008701F3
:101EE8000114FD30F2007308083E8600870172086D
:101EF80081057308023E860087017008C03F71089B
:101F0800C13F7308860087017008C03F7108C13F50
:101F18000800F800F401F5017008F200F3017208F6
:101F2800F6007308F700781C9A2F9B2F9F2F7608CE
:101F3800F4077708F53D0130F635F70D890BA02F2A
:101F48000310F80C7808031DAA2FAB2F972F7508DC
:101F5800F1007408F0000800083023009F0090305A
:101F68009D0024309E0040309B0003309C000030D0
:101F7800F0000030F1008E31D1268F310030F000B2
:101F88000030F1008E31D7268F310030F00000305C
:101F9800F1008E31CB268F312000EE010800F200CF
:101FA800E92F22000D108D110D12FF2F22000D14A4
:101FB8008D110D12FF2F22008D150D100D12FF2F00
:101FC80022000D160D108D11FF2F7208F000F1017F
:101FD8007108003A0319F12FFF2F7008003A03190E
:101FE800D52F013A0319DA2F033A0319DF2F013AE3
:081FF8000319E42FFF2F08007C
:020000040001F9
:04000E00E43FFF3F8D
:00000001FF
