:1000000080312828080008007E1480310B1F092841
:100010000A2826282100111F0E280F281828200042
:10002000111F1328142818288E31D826803126282D
:100030002100931D1C281D2826282000931D2128FF
:10004000222826288E31E726803126287E100900B6
:1000500080312A28F801F901FA01BC30840000300F
:1000600085000D308731FA2780317E1020008331E2
:10007000BE2B20002D088039B2003208B7002D3584
:10008000B2003208BD00AC1F4628472848283D145E
:100090003D0803194C284D285C283D0A031D5128B2
:1000A00052285A280030AD000030AC000030AB00C0
:1000B0000030AA00AC1764280030AD000030AC005E
:1000C0000030AB000030AA0031088039B20032089D
:1000D000B7063135B2003208B800B01F7028712859
:1000E0007228381438080319762877288628380AA1
:1000F000031D7B287C2884280030B1000030B0002C
:100100000030AF000030AE00B0178E280030B100D4
:100110000030B0000030AF000030AE0038080319E6
:100120009228932898283D08031D97289828A128ED
:100130000030AD000030AC000030AB000030AA0051
:100140008F2A2A08B2003208F30030088F317C274A
:10015000803174082000C3007308C2004208B20056
:10016000B301B401B5013508BC003408BB00330845
:10017000BA003208B9004308B200B301B401B501B6
:100180003508C1003408C0003308BF003208BE0083
:100190002B08B2003208F3002F088F317C27803102
:1001A00074082000C3007308C2004208B200B30103
:1001B000B401B5013208B9073308BA3D3408BB3D74
:1001C0003508BC3D4308B200B301B401B5013208A3
:1001D000BE073308BF3D3408C03D3508C13D2C087B
:1001E000B2003208F3002E088F317C27803174086A
:1001F0002000C3007308C2004208B200B301B4017A
:10020000B5013208B9073308BA3D3408BB3D35089B
:10021000BC3D4308B200B301B401B5013208BE07CA
:100220003308BF3D3408C03D3508C13D0830B935FD
:10023000BA0DBB0DBC0D890B17292B08B200320873
:10024000F3002E088F317C27803174082000C30012
:100250007308C2004208B9074308BA3D0030BB3DED
:10026000BC3D2A08B2003208F3002F088F317C27EA
:10027000803174082000C3007308C2004208B90727
:100280004308BA3D0030BB3DBC3D0830B935BA0D1E
:10029000BB0DBC0D890B46292A08B2003208F300B9
:1002A0002E088F317C27803174082000C30073082A
:1002B000C2004208B9074308BA3D0030BB3DBC3D0F
:1002C0002B08B2003208F30030088F317C278031D0
:1002D00074082000C3007308C2004208BE07430828
:1002E000BF3D0030C03DC13D2C08B2003208F300D4
:1002F0002F088F317C27803174082000C3007308D9
:10030000C2004208BE074308BF3D0030C03DC13DAA
:100310002C08B2003208F30030088F317C2780317E
:1003200074082000C3007308C2004208B2004308EA
:10033000B300B401B5010830B235B30DB40DB50D3D
:10034000890B9C293208BE073308BF3D3408C03DE5
:100350003508C13D3908B2003A08B3003B08B40083
:100360003C08B5001830B536B40CB30CB20C890B90
:10037000B3293208BE073308BF3D3408C03D3508F5
:10038000C13D0830B935BA0DBB0DBC0D890BC22972
:100390003D083807B200B301B30D3208823EC200F7
:1003A000FF30333DC300EB290130BE35BF0DC00D1A
:1003B000C10D890BD529BC1FDE29DF29E0293E1498
:1003C0000130B935BA0DBB0DBC0D890BE129FF30E9
:1003D000C207FF30C33DC01FEE29EF29D429B80161
:1003E000BC1FF329F429102AFF303905B200FF3071
:1003F0003A05B300FF303B05B4007F303C05B50043
:1004000035083404330432040319072A082A0B2A56
:10041000B801B80A102A3E1C0E2A0F2A102A082AF0
:1004200038080319142A152A3D2A0130BE07003066
:10043000BF3D0030C03D0030C13D411C202A212A73
:100440003D2A3E08B2003F08B3004008B40041080E
:10045000B5000130B600B537B40CB30CB20CB60B16
:100460002B2A3508C1003408C0003308BF00320809
:10047000BE000130C2070030C33D4308803AB200DD
:1004800080303202031D462AFF304202031C492AF3
:100490004A2A542A7F302000C1008030C00000303A
:1004A000BF000030BE00832A20004308803AB2001B
:1004B00080303202031D5E2A013042020318612A95
:1004C000622A6D2A00302000C1000030C0000030D8
:1004D000BF000030BE00B701832A20004208B200EE
:1004E0003208BD00FF30BE05FF30BF057F30C005BC
:1004F0000030C1053D1C7D2A7E2A7F2AC0173D366B
:10050000B2003208C1003708B2003208C104410805
:10051000AD004008AC003F08AB003E08AA00080050
:100520002000A0009E2B2008063E86008701013097
:1005300081022008063E860087010108031DA12ACA
:10054000A22AB52A0230F600200886008701760824
:1005500081002008053E860087010108F60020087A
:10056000073E860087017608810001308F31A02781
:1005700082312000200A86008701010885315B2531
:100580008231BD2B2008073E8600870101308102A1
:100590002008073E860087010108031DD02AD12AC2
:1005A000E42A0330F60020088600870176088100DF
:1005B0002008043E860087010108F6002008063E58
:1005C000860087017608810000308F31A0278231B4
:1005D000BD2B2008063E86008701013081022008DD
:1005E000063E860087010108031DF72AF82A0B2B17
:1005F0000430F60020088600870176088100200874
:10060000053E860087010108F6002008073E8600A7
:1006100087017608810002308F31A02782312000C7
:100620002008023E86008701010885315B25823162
:10063000BD2B2008073E860087010130810220087B
:10064000073E860087010108031D272B282B3B2B23
:100650000530F60020088600870176088100200812
:10066000043E860087010108F6002008063E860049
:1006700087017608810000308F31A0278231BD2BA1
:100680002008063E86008701013081022008063ED0
:10069000860087010108031D4E2B4F2B622B06306D
:1006A000F600200886008701760881002008053EB4
:1006B000860087010108F6002008073E86008701B2
:1006C0007608810003308F31A02782312000200876
:1006D000033E86008701010885315B258231BD2BF1
:1006E0002008073E86008701013081022008073E6E
:1006F000860087010108031D7E2B7F2B902B20088D
:10070000860087018101810A2008043E8600870156
:100710000108F6002008063E860087017608810061
:1007200000308F31A0278231BD2B0A3085315B2507
:10073000823102308F31A0278231952B200886002C
:1007400087010108F600F7017708003A0319A92B81
:10075000952B7608013A0319932A033A0319C22A02
:10076000013A0319E92A073A0319192B013A031927
:10077000402B033A0319702B952B08008F31282743
:1007800083318E31742683318B170B172100A4011E
:10079000E830F3000330F400AB308F313B27833176
:1007A0008F310527833121001D081D389D001D084C
:1007B0009F399D00E0309E00F301F30AF401F40A32
:1007C000F501F50A04302000D7005708F600F701BC
:1007D000F70AB43087312B2783318E317726833166
:1007E000CB30F3000E30F4008E31852683317A3021
:1007F000F3000E30F4008E319D2683317908031901
:10080000022C032C0C2CF901AB3086316D26833180
:10081000B430823190228331AB308E31A3268331C4
:10082000003A0319142C152C1C2CAB308E31B52634
:1008300083318E31712683317A080319202C212CC3
:10084000472CFA0121003D08A1003C08A000210826
:100850002000D000210020082000CF008731A727EA
:100860008331200050082100A30020004F08210000
:10087000A20023082000A400210022082000A300D9
:10088000B4308631CD2683312100A401A40A210091
:10089000240803194C2C4D2C9C2C942C2100370837
:1008A000303E2000D70057082100A5002C30200042
:1008B000D70057082100A6003608303E2000D70098
:1008C00057082100A7003508303E2000D700570800
:1008D0002100A8000D302000D70057082100AA00F1
:1008E0000A302000D70057082100A90025088E31C2
:1008F000AB2683316400210026088E31AB2683317C
:10090000210027088E31AB268331210028088E3143
:10091000AB268331210029088E31AB26833121009B
:100920002A088E31AB2683318E31F6268331003A88
:1009300003199B2C9C2C4E2C78080319A02CA12C5D
:10094000FE2BF8010B3085315B25833100308F3170
:10095000A02783316300FE2B803128282000A400CB
:1009600024080319B42CB52CC92CF61FB82CB92CAB
:10097000C92C7309A6007409A7007509A800760997
:10098000A900A60A0319A70A0319A80A0319A90AA4
:10099000D12C7608A9007508A8007408A700730870
:1009A000A6007608750474047304031DD82CD92C92
:1009B000E22C0030F6000030F5000030F40000308A
:1009C000F3005A2D9630A0002008A500F22C01302B
:1009D000A0002008A5070130A936A80CA70CA60C7A
:1009E000890BEC2CFE302905031DF72CF82CE72C85
:1009F0000C2D0130A0002008A5070130A60700300B
:100A0000A73D0030A83D0030A93D0130A936A80C13
:100A1000A70CA60C890B062DFF302905031D112DEF
:100A2000122DF92C1C2D0130A5020130A635A70D81
:100A3000A80DA90D890B162DA81B1F2D202D262DC5
:100A4000023025020318252D262D132D2518292DBA
:100A50002A2D322DFF30A605FF30A7057F30A805CF
:100A6000FF30A9050310A50C2508A000A101A201D3
:100A7000A3011830A035A10DA20DA30D890B3A2DAD
:100A80002008A6042108A7042208A8042308A90412
:100A9000240803194C2D4D2D522DF61F502D512D8C
:100AA000522DA9172908F6002808F5002708F40098
:100AB0002608F3000800F500C92D22000C148C1440
:100AC0000C158C150C168C170C13F72D22000C101E
:100AD0008C140C158C110C128C130C13F72D220096
:100AE0000C148C140C118C150C168C130C17F72D80
:100AF00022000C148C140C158C150C128C130C1772
:100B0000F72D22000C108C140C158C110C128C1764
:100B10000C17F72D22000C148C100C158C150C12D0
:100B20008C170C17F72D22000C148C100C158C153B
:100B30000C168C170C17F72D22000C148C140C15A6
:100B40008C110C128C130C13F72D22000C148C1426
:100B50000C158C150C168C170C17F72D22000C1485
:100B60008C140C158C150C128C170C17F72D2200F9
:100B70000C108C140C158C110C168C170C17F72DEF
:100B800022000C108C100C118C110C128C130C13F5
:100B9000F72D7508F300F4017408003A0319D12DFC
:100BA000F72D7308003A03195D2D013A0319662DDC
:100BB000033A03196F2D013A0319782D073A0319E7
:100BC000812D013A03198A2D033A0319932D013A15
:100BD00003199C2D0F3A0319A52D013A0319AE2DC7
:100BE000033A0319B72D013A0319C02DF72D080058
:100BF00003102000460D470DC8004808CE004E08DF
:100C0000031D032E042E0D2E0030C7000030C60039
:100C10000030C5000030C4006C2E4408C8004508F0
:100C2000C9004608CA004708CB001F30CB36CA0CA3
:100C3000C90CC80C890B162E4808CC004C08CD00F6
:100C4000C617FF30C405FF30C505FF30C6050030AC
:100C5000C7059630CE02CE1F2E2E2F2E472E4E08C1
:100C6000803A973E0318352E362E372E042E01304B
:100C7000C736C60CC50CC40C890B382E0130C80011
:100C80004808CE07031D452E462E372E5C2E2030F9
:100C90004E02031C4C2E4D2E572E042E0130C4350F
:100CA000C50DC60DC70D890B4F2E0130CE024E0863
:100CB000031D5B2E5C2E4E2E4D080319602E612EF7
:100CC0006C2EC409C509C609C709C40A0319C50A97
:100CD0000319C60A0319C70A0800F7007708083E77
:100CE00086008701011C752E762E982E77088600C7
:100CF00087010130810241310030813B7F3177082B
:100D00008600870116000104031D872E882E982E69
:100D10007708083E8600870181147708023E860026
:100D20008701770884008501403F803F413F813F34
:100D30007708043E86008701403FF300413FF400FE
:100D4000423FF500433FF6007608750474047304CF
:100D50000319AB2EAC2ECC2EFF30F300FF30F40085
:100D6000FF30F500FF30F6007708043E860087016B
:100D7000403FF307413FF43D423FF53D433FF63DE1
:100D80007708043E860087017308C03F7408C13F9E
:100D90007508C23F7608C33F08002000A6000A304D
:100DA000F3000030F4002408F6002308F5008F312A
:100DB000CB27863173082000A500260A860087010C
:100DC000250881000A30F3000030F4002408F60002
:100DD0002308F50087316A27863174082000A400B3
:100DE0007308A3000A30F3000030F4002408F60072
:100DF0002308F5008F31CB27863173082000A5002A
:100E00002608023E86008701250881000A30F3008B
:100E10000030F4002408F6002308F50087316A2723
:100E2000863174082000A4007308A3000A30F30080
:100E30000030F4002408F6002308F5008F31CB279A
:100E4000863173082000A5002608033E860087012E
:100E50002508810008002000A100210886008701E4
:100E60008101810A7308A000210A860087012008F9
:100E700081007408A0002108023E86008701200836
:100E800081007508A0002108033E86008701200824
:100E900081007608A0002108043E86008701200812
:100EA00081007708A0002108053E86008701200800
:100EB00081007608A0002108063E860087012008F0
:100EC00081007708A0002108073E860087012008DE
:100ED000810008002000A101A20173087404031915
:100EE000722F732FA22FA001A00A7F2F0130F3359C
:100EF000F40D890B772F0130F7007708A007F41F56
:100F0000822F832F762F0130A135A20D890B842FDC
:100F100074087602031D8E2F73087502031C912F2F
:100F2000922F972F7308F5027408F63B21140130B5
:100F3000F436F30C890B982F0130A002031DA12F6A
:100F4000A22F832F2208F4002108F30008003F306D
:100F50002000D4007A30D3000530D200BC30D1005C
:100F60004F08F3005008F400F501F6010030843119
:100F7000AE24873176082000B1007508B0007408EF
:100F8000AF007308AE005408AD005308AC0052081F
:100F9000AB005108AA0080313920873120002D088C
:100FA000C7002C08C6002B08C5002A08C4008531DC
:100FB000F825873120004508D6004408D50056089A
:100FC000D0005508CF00080022008C018D01203090
:100FD00021008C00E6308D00383023008D001F305A
:100FE0008C0024008D018C012100951722009D01A9
:100FF0009E010800640080010131890BFB2F003441
:101CE20021009D14080021009701080028001E15FC
:101CF20008000130F0007008F900080021001C08FB
:101D0200F1001B08F000080074082100BF007308EE
:101D1200BE00080074082100C1007308C00008005A
:101D220074082100C5007308C4000800740821006B
:101D3200C3007308C200080074082100C7007308BA
:101D4200C6000800F3007308083E860087010108F8
:101D520002390800F3002000111EB02EB12EAC2E65
:101D6200730823009A000800F400FD30F3007408A1
:101D7200083E860087017308810508007030210043
:101D8200990098012200960121001A1FC92ECA2E1D
:101D9200C52E08008E317F268E3171082100BD00CC
:101DA2007008BC000130F2007208FA00080020003E
:101DB200111321003E083F040319E02EE12EE62E06
:101DC2003F088A003E080A008E3108002000931165
:101DD2002100460847040319EF2EF02EF52E47087E
:101DE2008A0046080A008E310800F3012000111E05
:101DF200FB2EFC2E032F23009E1E002F012F032FEC
:101E0200F301F30A73080800E03021009E009B01F1
:101E12009C011D309D0011170230F3000030F400C8
:101E22008E3185268F310800F93028009D009C01F3
:101E320020009311210093150330F3000030F400C9
:101E42008E319D268F313D3028009E00080087315B
:101E5200E4278F318E31BF268F318E3174268F3138
:101E62008F3115278F318F3105278F318F315927C8
:101E72008F310800F6007608083E860087010114BB
:101E8200FD30F5007608083E860087017508810559
:101E92007608023E860087017308C03F7408C13F7E
:101EA2007608860087017308C03F7408C13F0800A6
:101EB200083023009F0090309D0024309E00403067
:101EC2009B0003309C000030F3000030F4008E31A0
:101ED20091268F310030F3000030F4008E319726C6
:101EE2008F310030F3000030F4008E318B268F31B9
:101EF2002100C80108002000A400A001A10173086C
:101F0200F500F6017508A2007608A300241C8A2FAA
:101F12008B2F8F2F2208A0072308A13D0130A23565
:101F2200A30D890B902F0310A40C2408031D9A2FD4
:101F32009B2F872F2108F4002008F3000800F300EC
:101F42007303031DA52FA62FAB2F22000D140D1214
:101F52008D11CA2F02307306031DB02FB12FB62F79
:101F620022000D108D150D12CA2F03307306031DAA
:101F7200BB2FBC2FC12F22000D108D110D16CA2FA1
:101F82007308031DC52FC62FCA2F22000D100D1274
:101F92008D110800730874040319D02FD12FFB2F61
:101FA2002000A001A00ADE2F0130F335F40D890BC9
:101FB200D62F0130F7007708A007F41FE12FE22F98
:101FC200D52F74087602031DE82F73087502031CCF
:101FD200EB2FEC2FF02F7308F5027408F63B01305B
:101FE200F436F30C890BF12F0130A002031DFA2FF6
:0E1FF200FB2FE22F7608F4007508F3000800BC
:020000040001F9
:04000E00FC3FFF3F75
:00000001FF
