:0400000080312828FB
:100008007E1480310B1F09280A2826282100111F79
:100018000E280F2818282000111F13281428182824
:1000280087314A27803126282100931D1C281D2846
:1000380026282000931D2128222826288731B72723
:10004800803126287E10090080312A28F801F9011C
:10005800FA01BC308400003085000D3087319327C9
:1000680080317E1020008231902A20002D088039AE
:10007800B2003208B7002D35B2003208BD00AC1FFF
:100088004628472848283D143D0803194C284D2880
:100098005C283D0A031D512852285A280030AD001B
:1000A8000030AC000030AB000030AA00AC17642868
:1000B8000030AD000030AC000030AB000030AA00CA
:1000C80031088039B2003208B7063135B20032083B
:1000D800B800B01F7028712872283814380803191E
:1000E800762877288628380A031D7B287C288428C8
:1000F8000030B1000030B0000030AF000030AE007A
:10010800B0178E280030B1000030B0000030AF00CA
:100118000030AE00380803199228932898283D0823
:10012800031D97289828A1280030AD000030AC00A6
:100138000030AB000030AA008F2A2A08B20032082B
:10014800F300300886318B26803174082000C30004
:100158007308C2004208B200B301B401B501350802
:10016800BC003408BB003308BA003208B9004308A1
:10017800B200B301B401B5013508C1003408C000AC
:100188003308BF003208BE002B08B2003208F30063
:100198002F0886318B26803174082000C30073082D
:1001A800C2004208B200B301B401B5013208B90770
:1001B8003308BA3D3408BB3D3508BC3D4308B2009E
:1001C800B301B401B5013208BE073308BF3D340896
:1001D800C03D3508C13D2C08B2003208F3002E0896
:1001E80086318B26803174082000C3007308C20052
:1001F8004208B200B301B401B5013208B9073308A7
:10020800BA3D3408BB3D3508BC3D4308B200B301D4
:10021800B401B5013208BE073308BF3D3408C03DFC
:100228003508C13D0830B935BA0DBB0DBC0D890B79
:1002380017292B08B2003208F3002E0886318B26C6
:10024800803174082000C3007308C2004208B9074F
:100258004308BA3D0030BB3DBC3D2A08B200320815
:10026800F3002F0886318B26803174082000C300E4
:100278007308C2004208B9074308BA3D0030BB3DC5
:10028800BC3D0830B935BA0DBB0DBC0D890B4629EC
:100298002A08B2003208F3002E0886318B268031F6
:1002A80074082000C3007308C2004208B907430855
:1002B800BA3D0030BB3DBC3D2B08B2003208F3000C
:1002C800300886318B26803174082000C3007308FB
:1002D800C2004208BE074308BF3D0030C03DC13DD3
:1002E8002C08B2003208F3002F0886318B268031A3
:1002F80074082000C3007308C2004208BE07430800
:10030800BF3D0030C03DC13D2C08B2003208F300AB
:10031800300886318B26803174082000C3007308AA
:10032800C2004208B2004308B300B401B501083066
:10033800B235B30DB40DB50D890B9C293208BE0733
:100348003308BF3D3408C03D3508C13D3908B20007
:100358003A08B3003B08B4003C08B5001830B5367D
:10036800B40CB30CB20C890BB3293208BE0733089E
:10037800BF3D3408C03D3508C13D0830B935BA0D18
:10038800BB0DBC0D890BC2293D083807B200B3016B
:10039800B30D3208823EC200FF30333DC300EB2963
:1003A8000130BE35BF0DC00DC10D890BD529BC1F4D
:1003B800DE29DF29E0293E140130B935BA0DBB0D1D
:1003C800BC0D890BE129FF30C207FF30C33DC01FB8
:1003D800EE29EF29D429B801BC1FF329F429102AE2
:1003E800FF303905B200FF303A05B300FF303B0556
:1003F800B4007F303C05B5003508340433043204BA
:100408000319072A082A0B2AB801B80A102A3E1C21
:100418000E2A0F2A102A082A38080319142A152A1E
:100428003D2A0130BE070030BF3D0030C03D0030DE
:10043800C13D411C202A212A3D2A3E08B2003F081E
:10044800B3004008B4004108B5000130B600B53724
:10045800B40CB30CB20CB60B2B2A3508C100340807
:10046800C0003308BF003208BE000130C2070030A8
:10047800C33D4308803AB20080303202031D462A49
:10048800FF304202031C492A4A2A542A7F3020009E
:10049800C1008030C0000030BF000030BE00832A99
:1004A80020004308803AB20080303202031D5E2AE1
:1004B800013042020318612A622A6D2A00302000A6
:1004C800C1000030C0000030BF000030BE00B701DE
:1004D800832A20004208B2003208BD00FF30BE0562
:1004E800FF30BF057F30C0050030C1053D1C7D2AA7
:1004F8007E2A7F2AC0173D36B2003208C10037086D
:10050800B2003208C1044108AD004008AC003F0801
:10051800AB003E08AA0008008731052782318731E1
:10052800C92782318B170B17E830F3000330F4002A
:10053800AB308631D126823187312B278231210099
:100548001D081D389D001D089F399D00E0309E0044
:10055800F301F30AF401F40AF501F50A0430200066
:10056800D7005708F600F701F70AB430853172252D
:1005780082318731CD2782316630F3000730F400AD
:100588008731B1278231BD30F3000730F40087315D
:1005980099278231AB3087317F2782318731D02745
:1005A8008231F90121003D08A1003C08A000210882
:1005B8002000D000210020082000CF008531EE2542
:1005C8008231200050082100A30020004F0821009C
:1005D800A20023082000A400210022082000A30074
:1005E800B43085311425823187313B278231003A76
:1005F8000319FF2A002BF82A21003708303E200073
:10060800D70057082100A5002C302000D700570834
:100618002100A6003608303E2000D70057082100E8
:10062800A7003508303E2000D70057082100A80051
:100638000D302000D70057082100AA000A302000FA
:10064800D70057082100A90025088731892782315A
:100658006400210026088731892782312100270874
:1006680087318927823121002808873189278231FB
:100678002100290887318927823121002A088731FA
:1006880089278231F801F80AF8010B3084310224F5
:10069800823100308631602682316300CE2A803173
:1006A80028282000A400240803195B2B5C2B702B3E
:1006B800F61F5F2B602B702B7309A6007409A70027
:1006C8007509A8007609A900A60A0319A70A03193B
:1006D800A80A0319A90A782B7608A9007508A800A2
:1006E8007408A7007308A6007608750474047304D8
:1006F800031D7F2B802B892B0030F6000030F5007E
:100708000030F4000030F300012C9630A0002008DF
:10071800A500992B0130A0002008A5070130A936B3
:10072800A80CA70CA60C890B932BFE302905031DDA
:100738009E2B9F2B8E2BB32B0130A0002008A507E2
:100748000130A6070030A73D0030A83D0030A93D84
:100758000130A936A80CA70CA60C890BAD2BFF30CD
:100768002905031DB82BB92BA02BC32B0130A502DB
:100778000130A635A70DA80DA90D890BBD2BA81B07
:10078800C62BC72BCD2B023025020318CC2BCD2B23
:10079800BA2B2518D02BD12BD92BFF30A605FF302B
:1007A800A7057F30A805FF30A9050310A50C25086B
:1007B800A000A101A201A3011830A035A10DA20D2E
:1007C800A30D890BE12B2008A6042108A704220801
:1007D800A8042308A90424080319F32BF42BF92BE4
:1007E800F61FF72BF82BF92BA9172908F60028086C
:1007F800F5002708F4002608F3000800F500702C1F
:1008080022000C148C140C158C150C168C170C1358
:100818009E2C22000C108C140C158C110C128C13AD
:100828000C139E2C22000C148C140C118C150C1615
:100838008C130C179E2C22000C148C140C158C1580
:100848000C128C130C179E2C22000C108C140C15F7
:100858008C110C128C170C179E2C22000C148C1067
:100868000C158C150C128C170C179E2C22000C14CE
:100878008C100C158C150C168C170C179E2C22003E
:100888000C148C140C158C110C128C130C139E2C3C
:1008980022000C148C140C158C150C168C170C17C4
:1008A8009E2C22000C148C140C158C150C128C1711
:1008B8000C179E2C22000C108C140C158C110C1685
:1008C8008C170C179E2C22000C108C100C118C11FC
:1008D8000C128C130C139E2C7508F300F401740889
:1008E800003A0319782C9E2C7308003A0319042C3B
:1008F800013A03190D2C033A0319162C013A03196E
:100908001F2C073A0319282C013A0319312C033AF2
:1009180003193A2C013A0319432C0F3A03194C2CAA
:10092800013A0319552C033A03195E2C013A0319AD
:10093800672C9E2C080003102000460D470DC800A8
:100948004808CE004E08031DAA2CAB2CB42C00304E
:10095800C7000030C6000030C5000030C400132DA9
:100968004408C8004508C9004608CA004708CB0023
:100978001F30CB36CA0CC90CC80C890BBD2C4808D3
:10098800CC004C08CD00C617FF30C405FF30C505A4
:10099800FF30C6050030C7059630CE02CE1FD52CD5
:1009A800D62CEE2C4E08803A973E0318DC2CDD2C12
:1009B800DE2CAB2C0130C736C60CC50CC40C890B19
:1009C800DF2C0130C8004808CE07031DEC2CED2CA5
:1009D800DE2C032D20304E02031CF32CF42CFE2CAD
:1009E800AB2C0130C435C50DC60DC70D890BF62CCF
:1009F8000130CE024E08031D022D032DF52C4D08A3
:100A08000319072D082D132DC409C509C609C709DF
:100A1800C40A0319C50A0319C60A0319C70A080034
:100A28002000A6000A30F3000030F4002408F60085
:100A38002308F50086312B26853173082000A50090
:100A4800260A86008701250881000A30F300003055
:100A5800F4002408F6002308F5008531B125853116
:100A680074082000A4007308A3000A30F3000030C3
:100A7800F4002408F6002308F50086312B2685317A
:100A880073082000A5002608023E86008701250875
:100A980081000A30F3000030F4002408F60023082F
:100AA800F5008531B125853174082000A40073084C
:100AB800A3000A30F3000030F4002408F6002308ED
:100AC800F50086312B26853173082000A5002608FD
:100AD800033E860087012508810008002000A10048
:100AE8002108860087018101810A7308A000210A74
:100AF80086008701200881007408A0002108023EB2
:100B080086008701200881007508A0002108033E9F
:100B180086008701200881007608A0002108043E8D
:100B280086008701200881007708A0002108053E7B
:100B380086008701200881007608A0002108063E6B
:100B480086008701200881007708A0002108073E59
:100B5800860087012008810008002000A101A20169
:100B6800730874040319B92DBA2DE92DA001A00A40
:100B7800C62D0130F335F40D890BBE2D0130F70079
:100B88007708A007F41FC92DCA2DBD2D0130A13546
:100B9800A20D890BCB2D74087602031DD52D730881
:100BA8007502031CD82DD92DDE2D7308F5027408A3
:100BB800F63B21140130F436F30C890BDF2D01309C
:100BC800A002031DE82DE92DCA2D2208F4002108F2
:100BD800F30008003F302000D4007A30D3000530FD
:100BE800D200BC30D1004F08F3005008F400F501E2
:100BF800F601003083315523853176082000B10095
:100C08007508B0007408AF007308AE005408AD0052
:100C18005308AC005208AB005108AA0080313920B3
:100C2800853120002D08C7002C08C6002B08C500F8
:100C38002A08C40084319F24853120004508D60045
:100C48004408D5005608D0005508CF00080073089E
:100C580074040319302E312E5B2E2000A001A00A47
:100C68003E2E0130F335F40D890B362E0130F70096
:100C78007708A007F41F412E422E352E74087602FD
:100C8800031D482E73087502031C4B2E4C2E502E44
:100C98007308F5027408F63B0130F436F30C890B3F
:100CA800512E0130A002031D5A2E5B2E422E7608CB
:100CB800F4007508F3000800F3007303031D652EA4
:100CC800662E6B2E22000D140D128D118A2E023005
:100CD8007306031D702E712E762E22000D108D15B1
:100CE8000D128A2E03307306031D7B2E7C2E812E57
:100CF80022000D108D110D168A2E7308031D852EE6
:100D0800862E8A2E22000D100D128D11080020004B
:100D1800A400A001A1017308F500F6017508A2005E
:100D28007608A300241C992E9A2E9E2E2208A0072E
:100D38002308A13D0130A235A30D890B9F2E031076
:100D4800A40C2408031DA92EAA2E962E2108F4000F
:100D58002008F3000800083023009F0090309D0011
:100D680024309E0040309B0003309C000030F3008C
:100D78000030F4008731A52786310030F3000030B9
:100D8800F40087319F2786310030F3000030F400EB
:100D98008731AB278631FA010800F6007608083E4D
:100DA800860087010114FD30F5007608083E8600AC
:100DB8008701750881057608023E86008701730859
:100DC800C03F7408C13F7608860087017308C03F9A
:100DD8007408C13F080022008C018D0120302100D9
:100DE8008C00E6308D00383023008D001F308C00D9
:100DF80024008D018C012100951722009D019E0180
:100E080008008631EF26873187317327873187318C
:100E1800C927873187311827873187312B278731B1
:100E28008631AF2687310800F93028009D009C01E3
:100E38002000931121009315D330F3000730F400FC
:100E48008731992787313D3028009E000800E0301F
:100E580021009E009B019C011D309D001117D4307C
:100E6800F3000730F4008731B12787310800F30118
:100E78002000111E402F412F482F23009E1E452F72
:100E8800462F482FF301F30A7308080020001113B6
:100E980021003E083F040319522F532F582F3F08B3
:100EA8008A003E080A0087310800210046084704E6
:100EB80003195F2F602F652F47088A0046080A002C
:100EC800873108008731C327873171082100BD00A9
:100ED8007008BC000130F2007208F9000800703098
:100EE8002100990098012200960121001A1F7D2FE8
:100EF8007E2F792F0800F400FD30F3007408083EB7
:100F080086008701730881050800F3002000111E80
:100F18008E2F8F2F8A2F730823009A0008006400F1
:100F280080010131890B942F003474082100C70017
:100F38007308C600080074082100C3007308C200C3
:100F4800080074082100C5007308C400080074086C
:100F58002100C1007308C000080074082100BF0008
:100F68007308BE0008002000931187315927873184
:100F780008000130F00070082100C80008002100B6
:100F88001C08F1001B08F00008001430210097002D
:100F9800080028001E15080021009D1408000800FC
:020FA80008003F
:020000040001F9
:04000E00FC3FFF3F75
:00000001FF
