:10000000803102288731F32FF0007008083E860007
:100010008701010802390800083023009F00903052
:100020009D0024309E0040309B0003309C00003037
:10003000F0000030F1008F31282780310030F000CF
:100040000030F1008F312E2780310030F000003079
:10005000F1008F31222780312100A8010800F20031
:10006000452822000D108D110D125B2822000D1461
:100070008D110D125B2822008D150D100D125B28BD
:1000800022000D160D108D115B287208F000F10191
:100090007108003A03194D285B287008003A0319CB
:1000A0003128013A03193628033A03193B28013A4B
:1000B000031940285B28080070087104031961289F
:1000C00062288B28F501F50A6E280130F035F10D14
:1000D000890B66280130F4007408F507F11F7128B8
:1000E0007228652871087302031D7828700872024F
:1000F000031C7B287C2880287008F2027108F33BDF
:100100000130F136F00C890B81280130F502031D16
:100110008A288B2872287308F1007208F000080002
:10012000F501F60170087104031997289828C7286B
:10013000F701F70AA4280130F035F10D890B9C284E
:100140000130F4007408F707F11FA728A8289B289E
:100150000130F535F60D890BA92871087302031DCE
:10016000B32870087202031CB628B728BC28700890
:10017000F2027108F33B75140130F136F00C890B73
:10018000BD280130F702031DC628C728A828760815
:10019000F1007508F00008003F302000CA007A30F6
:1001A000C9000530C800BC30C7004508F00046084B
:1001B000F100F201F301003083310523803173082F
:1001C0002000A7007208A6007108A5007008A4000E
:1001D0004A08A3004908A2004808A1004708A00057
:1001E00085319C25803120002308BD002208BC00F9
:1001F0002108BB002008BA008131FF218031200096
:100200003B08CC003A08CB004C08C6004B08C500A0
:100210000800F6007608860087018101810A7008CF
:10022000F500760A86008701750881007108F500DF
:100230007608023E86008701750881007208F50085
:100240007608033E86008701750881007308F50073
:100250007608043E86008701750881007408F50061
:100260007608053E86008701750881007308F50051
:100270007608063E86008701750881007408F5003F
:100280007608073E86008701750881000800FB009C
:100290000A30F0000030F1007908F3007808F2002D
:1002A00080315C2081317008FA007B0A860087016A
:1002B0007A0881000A30F0000030F1007908F3007C
:1002C0007808F2008031902081317108F9007008BF
:1002D000F8000A30F0000030F1007908F3007808E7
:1002E000F20080315C2081317008FA007B08023E08
:1002F000860087017A0881000A30F0000030F100A2
:100300007908F3007808F20080319020813171087B
:10031000F9007008F8000A30F0000030F1007908A8
:10032000F3007808F20080315C2081317008FA0017
:100330007B08033E860087017A0881000800F400EC
:100340007408083E86008701011CA729A829CA292C
:100350007408860087010130810241310030813B01
:100360007F3174088600870116000104031DB92936
:10037000BA29CA297408083E8600870181147408C6
:10038000023E86008701740884008501403F803F5B
:10039000413F813F7408043E86008701403FF000E2
:1003A000413FF100423FF200433FF3007308720403
:1003B000710470040319DD29DE29FE29FF30F000E5
:1003C000FF30F100FF30F200FF30F3007408043E0C
:1003D00086008701403FF007413FF13D423FF23D3B
:1003E000433FF33D7408043E860087017008C03F18
:1003F0007108C13F7208C23F7308C33F0800031071
:1004000020003C0D3D0DBE003E08C4004408031D05
:100410000A2A0B2A142A0030BD000030BC0000302C
:10042000BB000030BA00732A3A08BE003B08BF0088
:100430003C08C0003D08C1001F30C136C00CBF0CD5
:10044000BE0C890B1D2A3E08C2004208C300BC171F
:10045000FF30BA05FF30BB05FF30BC050030BD05DD
:100460009630C402C41F352A362A4E2A4408803AE0
:10047000973E03183C2A3D2A3E2A0B2A0130BD36FE
:10048000BC0CBB0CBA0C890B3F2A0130BE003E08E5
:10049000C407031D4C2A4D2A3E2A632A20304402F9
:1004A000031C532A542A5E2A0B2A0130BA35BB0D8D
:1004B000BC0DBD0D890B562A0130C4024408031D32
:1004C000622A632A552A43080319672A682A732A6D
:1004D000BA09BB09BC09BD09BA0A0319BB0A031949
:1004E000BC0A0319BD0A0800F200D92A22000C1424
:1004F0008C140C158C150C168C170C13042B220065
:100500000C108C140C158C110C128C130C13042B66
:1005100022000C148C140C118C150C168C130C1757
:10052000042B22000C148C140C158C150C128C133B
:100530000C17042B22000C108C140C158C110C12AF
:100540008C170C17042B22000C148C100C158C1516
:100550000C128C170C17042B22000C148C100C1589
:100560008C150C168C170C17042B22000C148C14F1
:100570000C158C110C128C130C13042B22000C1470
:100580008C140C158C150C168C170C17042B2200D0
:100590000C148C140C158C150C128C170C17042BC6
:1005A00022000C148C140C158C150C168C178C173F
:1005B000042B7208F000F1017108003A0319E12AD6
:1005C000042B7008003A0319762A013A03197F2A8E
:1005D000033A0319882A013A0319912A073A0319A1
:1005E0009A2A013A0319A32A033A0319AC2A013AB9
:1005F0000319B52A0F3A0319BE2A013A0319C72A6B
:10060000033A0319D02A042B0800F80078080319CC
:100610000A2B0B2B1F2BF31F0E2B0F2B1F2B7009DD
:10062000FA007109FB007209FC007309FD00FA0A67
:100630000319FB0A0319FC0A0319FD0A272B730887
:10064000FD007208FC007108FB007008FA007308D6
:10065000720471047004031D2E2B2F2B382B0030D5
:10066000F3000030F2000030F1000030F000B02B59
:100670009630F4007408F900482B0130F400740837
:10068000F9070130FD36FC0CFB0CFA0C890B422BF0
:10069000FE307D05031D4D2B4E2B3D2B622B013073
:1006A000F4007408F9070130FA070030FB3D003010
:1006B000FC3D0030FD3D0130FD36FC0CFB0CFA0C1E
:1006C000890B5C2BFF307D05031D672B682B4F2B9F
:1006D000722B0130F9020130FA35FB0DFC0DFD0DD6
:1006E000890B6C2BFC1B752B762B7C2B0230790233
:1006F00003187B2B7C2B692B79187F2B802B882B65
:10070000FF30FA05FF30FB057F30FC05FF30FD05AB
:100710000310F90C7908F400F501F601F70118301F
:10072000F435F50DF60DF70D890B902B7408FA04CE
:100730007508FB047608FC047708FD0478080319A3
:10074000A22BA32BA82BF31FA62BA72BA82BFD179F
:100750007D08F3007C08F2007B08F1007A08F000C5
:1007600008002000D101D2018F3196278331E83073
:10077000F0000330F1005F308F31BF27833120005C
:100780004E088F316D2783318F313B2783318F3175
:100790001927833121001D081D389D001D089F3930
:1007A0009D00E0309E00F001F00AF101F10AF20133
:1007B000F20A04302000CD004D08F300F401F40AE1
:1007C00068308131092183318F317A278331003AB2
:1007D0000319EB2BEC2BF42B5F3081319F218331FC
:1007E00068308431722483315F308031042083315A
:1007F000003A0319FC2BFD2B4B2C5F308F31572710
:1008000083318F31132783318F3187278331003A2A
:1008100003190B2C0C2C4B2C20006B08303ED30002
:10082000003003180130D4002C30D5000030D60041
:100830006A08303ED700003003180130D80069083C
:10084000303ED900003003180130DA000D30DD00F1
:100850000030DE000A30DB000030DC0053088F314E
:1008600043278331200055088F31432783312000EF
:1008700057088F3143278331200059088F31432790
:10088000833120005B088F314327833120005D08CE
:100890008F31432783318F3134278331003A031955
:1008A000522C532CE42B8F311C27833171082000EC
:1008B000D0007008CF005008C6004F08C500803136
:1008C000CC20833120004608D2004508D1005208D0
:1008D000F9005108F8006830813147218331E42B59
:1008E00080310228F5007C2D7508063E86008701C0
:1008F000013081027508063E860087010108031D4C
:10090000822C832C962C0230F30075088600870118
:10091000730881007508053E860087010108F30011
:100920007508073E86008701730881000130803119
:100930002F208431750A86008701010882317422D4
:1009400084319B2D7508073E8600870101308102A6
:100950007508073E860087010108031DB02CB12CE5
:10096000C42C0330F30075088600870173088100EA
:100970007508043E860087010108F3007508063EED
:100980008600870173088100003080312F20843178
:100990009B2D7508063E860087010130810275088F
:1009A000063E860087010108031DD72CD82CEB2CAE
:1009B0000430F3007508860087017308810075080C
:1009C000053E860087010108F3007508073E860092
:1009D000870173088100023080312F20843175082F
:1009E000023E8600870101088231742284319B2DEA
:1009F0007508073E86008701013081027508073EB1
:100A0000860087010108031D062D072D1A2D0530CC
:100A1000F300750886008701730881007508043E9D
:100A2000860087010108F3007508063E86008701ED
:100A300073088100003080312F2084319B2D750890
:100A4000063E86008701013081027508063E860059
:100A500087010108031D2D2D2E2D412D0630F30099
:100A6000750886008701730881007508053E8600B9
:100A700087010108F3007508073E860087017308A7
:100A80008100033080312F2084317508033E8600B9
:100A9000870101088231742284319B2D7508073E3D
:100AA00086008701013081027508073E86008701B4
:100AB0000108031D5C2D5D2D6E2D750886008701D4
:100AC0008101810A7508043E860087010108F30050
:100AD0007508063E8600870173088100003080316A
:100AE0002F2084319B2D0A308231742284310230D0
:100AF00080312F208431732D75088600870101080D
:100B0000F300F4017408003A0319872D732D73085C
:100B1000013A0319742C033A0319A22C013A031960
:100B2000C92C073A0319F82C013A03191F2D033A6F
:100B300003194E2D732D0800200023088039A800CA
:100B40002808AD002335A8002808B300A21FA92D4E
:100B5000AA2DAB2D331433080319AF2DB02DBF2DA3
:100B6000330A031DB42DB52DBD2D0030A300003078
:100B7000A2000030A1000030A000A217C72D003055
:100B8000A3000030A2000030A1000030A000270820
:100B90008039A8002808AD062735A8002808B2002B
:100BA000A61FD32DD42DD52D321432080319D92DDB
:100BB000DA2DE92D320A031DDE2DDF2DE72D003061
:100BC000A7000030A6000030A5000030A400A61742
:100BD000F12D0030A7000030A6000030A500003045
:100BE000A40032080319F52DF62DFB2D3308031D43
:100BF000FA2DFB2D042E0030A3000030A20000309F
:100C0000A1000030A000F22F2008A8002808F00062
:100C100026088F31DD27853171082000B900700862
:100C2000B8003808A800A901AA01AB012B08B1003F
:100C30002A08B0002908AF002808AE003908A8002B
:100C4000A901AA01AB012B08B7002A08B6002908A0
:100C5000B5002808B4002108A8002808F0002508DD
:100C60008F31DD27853171082000B9007008B80088
:100C70003808A800A901AA01AB012808AE07290875
:100C8000AF3D2A08B03D2B08B13D3908A800A901A5
:100C9000AA01AB012808B4072908B53D2A08B63DCA
:100CA0002B08B73D2208A8002808F00024088F313F
:100CB000DD27853171082000B9007008B8003808B8
:100CC000A800A901AA01AB012808AE072908AF3D79
:100CD0002A08B03D2B08B13D3908A800A901AA0196
:100CE000AB012808B4072908B53D2A08B63D2B08F2
:100CF000B73D0830AE35AF0DB00DB10D890B7A2E72
:100D00002108A8002808F00024088F31DD2785314C
:100D100071082000B9007008B8003808AE0739081B
:100D2000AF3D0030B03DB13D2008A8002808F000DC
:100D300025088F31DD27853171082000B900700842
:100D4000B8003808AE073908AF3D0030B03DB13DBE
:100D50000830AE35AF0DB00DB10D890BA92E2008AE
:100D6000A8002808F00024088F31DD27853171089C
:100D70002000B9007008B8003808AE073908AF3D48
:100D80000030B03DB13D2108A8002808F000260839
:100D90008F31DD27853171082000B9007008B80057
:100DA0003808B4073908B53D0030B63DB73D2208D4
:100DB000A8002808F00025088F31DD27853171084B
:100DC0002000B9007008B8003808B4073908B53DEC
:100DD0000030B63DB73D2208A8002808F0002608DC
:100DE0008F31DD27853171082000B9007008B80007
:100DF0003808A8003908A900AA01AB010830A835B5
:100E0000A90DAA0DAB0D890BFF2E2808B4072908E0
:100E1000B53D2A08B63D2B08B73D2E08A8002F087F
:100E2000A9003008AA003108AB001830AB36AA0C74
:100E3000A90CA80C890B162F2808B4072908B53D62
:100E40002A08B63D2B08B73D0830AE35AF0DB00DC2
:100E5000B10D890B252F33083207A800A901A90D70
:100E60002808823EB800FF30293DB9004E2F0130DE
:100E7000B435B50DB60DB70D890B382FB11F412F05
:100E8000422F432F34140130AE35AF0DB00DB10DEC
:100E9000890B442FFF30B807FF30B93DB61F512FE3
:100EA000522F372FB201B11F562F572F732FFF30FC
:100EB0002E05A800FF302F05A900FF303005AA003D
:100EC0007F303105AB002B082A04290428040319BC
:100ED0006A2F6B2F6E2FB201B20A732F341C712F41
:100EE000722F732F6B2F32080319772F782FA02FB3
:100EF0000130B4070030B53D0030B63D0030B73D9D
:100F0000371C832F842FA02F3408A8003508A90090
:100F10003608AA003708AB000130AC00AB37AA0C8A
:100F2000A90CA80CAC0B8E2F2B08B7002A08B60012
:100F30002908B5002808B4000130B8070030B93DD1
:100F40003908803AA80080302802031DA92FFF30FD
:100F50003802031CAC2FAD2FB72F7F302000B70015
:100F60008030B6000030B5000030B400E62F20001D
:100F70003908803AA80080302802031DC12F0130B3
:100F800038020318C42FC52FD02F00302000B7001F
:100F90000030B6000030B5000030B400AD01E62FDF
:100FA00020003808A8002808B300FF30B405FF303F
:100FB000B5057F30B6050030B705331CE02FE12FB3
:100FC000E22FB6173336A8002808B7002D08A8006E
:100FD0002808B7043708A3003608A2003508A10086
:100FE0003408A00008002100A001A101A201A30172
:100FF000A401A501A601A701A80120008331B12BFE
:101E260021009D14080021009701080028001E15B6
:101E3600080021001C08F1001B08F00008007108CA
:101E46002100A3007008A200080071082100A70065
:101E56007008A600080071082100A5007008A400FB
:101E66000800031021009D1C03140030093D0800E2
:101E7600E03021009E009B019C011D309D00080062
:101E8600F0002000111E482F492F442F7008230010
:101E96009A000800F93028009D009C01200093114B
:101EA6003D3028009E000800F100FD30F00071086A
:101EB600083E860087017008810508007030210001
:101EC600990098012200960121001A1F6B2F6C2F92
:101ED600672F0800F1007108F000F00DF00D2100E9
:101EE6001D087006833970069D001D140800003019
:101EF600200093190130F00070080319832F842FF6
:101F0600852F931170080800F0012000111E8C2FF8
:101F16008D2F942F23009E1E912F922F942FF00128
:101F2600F00A700808008F31A9278F318F31612799
:101F36008F318F3116278F318F314D278F318F316A
:101F46003B278F3180310C208F31080022008C0115
:101F56008D01203021008C00E6308D0038302300C2
:101F66008D001F308C0024008D018C0121009517F7
:101F760022009D019E010800F3007308083E8600BA
:101F860087010114FD30F2007308083E86008701C0
:101F9600720881057308023E860087017008C03FFB
:101FA6007108C13F7308860087017008C03F710839
:101FB600C13F0800F800F401F5017008F200F301D2
:101FC6007208F6007308F700781CEA2FEB2FEF2F44
:101FD6007608F4077708F53D0130F635F70D890BDD
:101FE600F02F0310F80C7808031DFA2FFB2FE72FAC
:0A1FF6007508F1007408F0000800FF
:020000040001F9
:04000E00E43FFF3F8D
:00000001FF
