:10000000803102288731F32F28001E150800F300E5
:100010007308083E860087010114FD30F200730862
:10002000083E86008701720881057308023E86003B
:1000300087017008C03F7108C13F730886008701BF
:100040007008C03F7108C13F0800F2003B28220041
:100050000D108D110D12512822000D148D110D124D
:10006000512822008D150D100D12512822000D1659
:100070000D108D1151287208F000F1017108003A3D
:100080000319432851287008003A03192728013A18
:1000900003192C28033A03193128013A0319362889
:1000A000512808007008710403195728582881281E
:1000B000F501F50A64280130F035F10D890B5C2853
:1000C0000130F4007408F507F11F672868285B28E1
:1000D00071087302031D6E2870087202031C7128D8
:1000E000722876287008F2027108F33B0130F1366D
:1000F000F00C890B77280130F502031D8028812838
:1001000068287308F1007208F0000800F501F60194
:100110007008710403198D288E28BD28F701F70A8D
:100120009A280130F035F10D890B92280130F40046
:100130007408F707F11F9D289E2891280130F53596
:10014000F60D890B9F2871087302031DA9287008FA
:100150007202031CAC28AD28B2287008F2027108A4
:10016000F33B75140130F136F00C890BB3280130E4
:10017000F702031DBC28BD289E287608F1007508EB
:10018000F00008003F302000CA007A30C900053076
:10019000C800BC30C7004508F0004608F100F20175
:1001A000F30100308231FB22803173082000A70068
:1001B0007208A6007108A5007008A4004A08A300F0
:1001C0004908A2004808A1004708A00085319C25E5
:1001D000803120002308BD002208BC002108BB009C
:1001E0002008BA008131F521803120003B08CC0085
:1001F0003A08CB004C08C6004B08C5000800F600C2
:100200007608860087018101810A7008F500760A68
:1002100086008701750881007108F5007608023EA6
:1002200086008701750881007208F5007608033E94
:1002300086008701750881007308F5007608043E82
:1002400086008701750881007408F5007608053E70
:1002500086008701750881007308F5007608063E60
:1002600086008701750881007408F5007608073E4E
:1002700086008701750881000800FB000A30F00045
:100280000030F1007908F3007808F2008031522044
:1002900081317008FA007B0A860087017A088100A4
:1002A0000A30F0000030F1007908F3007808F2001D
:1002B0008031862081317108F9007008F8000A3019
:1002C000F0000030F1007908F3007808F200803186
:1002D000522081317008FA007B08023E86008701B7
:1002E0007A0881000A30F0000030F1007908F3004C
:1002F0007808F2008031862081317108F900700899
:10030000F8000A30F0000030F1007908F3007808B6
:10031000F2008031522081317008FA007B08033EE0
:10032000860087017A0881000800F4007408083EFE
:1003300086008701011C9D299E29C029740886001A
:1003400087010130810241310030813B7F317408E7
:100350008600870116000104031DAF29B029C029BA
:100360007408083E8600870181147408023E8600E6
:100370008701740884008501403F803F413F813FF1
:100380007408043E86008701403FF000413FF100C1
:10039000423FF200433FF30073087204710470049B
:1003A0000319D329D429F429FF30F000FF30F100DC
:1003B000FF30F200FF30F3007408043E860087012E
:1003C000403FF007413FF13D423FF23D433FF33DA7
:1003D0007408043E860087017008C03F7108C13F61
:1003E0007208C23F7308C33F0800031020003C0D91
:1003F0003D0DBE003E08C4004408031D002A012A2A
:100400000A2A0030BD000030BC000030BB000030C4
:10041000BA00692A3A08BE003B08BF003C08C00089
:100420003D08C1001F30C136C00CBF0CBE0C890B8B
:10043000132A3E08C2004208C300BC17FF30BA05A9
:10044000FF30BB05FF30BC050030BD059630C4024F
:10045000C41F2B2A2C2A442A4408803A973E0318AA
:10046000322A332A342A012A0130BD36BC0CBB0C97
:10047000BA0C890B352A0130BE003E08C407031DA3
:10048000422A432A342A592A20304402031C492A8A
:100490004A2A542A012A0130BA35BB0DBC0DBD0DC4
:1004A000890B4C2A0130C4024408031D582A592ADA
:1004B0004B2A430803195D2A5E2A692ABA09BB0937
:1004C000BC09BD09BA0A0319BB0A0319BC0A0319FE
:1004D000BD0A0800F200CF2A22000C148C140C155F
:1004E0008C150C168C170C13FA2A22000C108C1485
:1004F0000C158C110C128C130C13FA2A22000C14FC
:100500008C140C118C150C168C130C17FA2A220063
:100510000C148C140C158C150C128C130C17FA2A55
:1005200022000C108C140C158C110C128C170C174B
:10053000FA2A22000C148C100C158C150C128C1736
:100540000C17FA2A22000C148C100C158C150C16A2
:100550008C170C17FA2A22000C148C140C158C1111
:100560000C128C130C13FA2A22000C148C140C1588
:100570008C150C168C170C17FA2A22000C148C14EC
:100580000C158C150C128C170C17FA2A22000C145F
:100590008C140C158C150C168C178C17FA2A7208F3
:1005A000F000F1017108003A0319D72AFA2A7008FD
:1005B000003A03196C2A013A0319752A033A031900
:1005C0007E2A013A0319872A073A0319902A013A29
:1005D0000319992A033A0319A22A013A0319AB2AEB
:1005E0000F3A0319B42A013A0319BD2A033A031931
:1005F000C62AFA2A0800F80078080319002B012BF4
:10060000152BF31F042B052B152B7009FA0071090C
:10061000FB007209FC007309FD00FA0A0319FB0ACA
:100620000319FC0A0319FD0A1D2B7308FD0072084B
:10063000FC007108FB007008FA0073087204710472
:100640007004031D242B252B2E2B0030F3000030CB
:10065000F2000030F1000030F000A62B9630F400DC
:100660007408F9003E2B0130F4007408F9070130DA
:10067000FD36FC0CFB0CFA0C890B382BFE307D058B
:10068000031D432B442B332B582B0130F4007408EB
:10069000F9070130FA070030FB3D0030FC3D003027
:1006A000FD3D0130FD36FC0CFB0CFA0C890B522B86
:1006B000FF307D05031D5D2B5E2B452B682B013024
:1006C000F9020130FA35FB0DFC0DFD0D890B622B93
:1006D000FC1B6B2B6C2B722B023079020318712BD5
:1006E000722B5F2B7918752B762B7E2BFF30FA053A
:1006F000FF30FB057F30FC05FF30FD050310F90CD2
:100700007908F400F501F601F7011830F435F50D1C
:10071000F60DF70D890B862B7408FA047508FB0497
:100720007608FC047708FD0478080319982B992BA8
:100730009E2BF31F9C2B9D2B9E2BFD177D08F300FA
:100740007C08F2007B08F1007A08F0000800210024
:10075000A001A1018F3191278331E830F0000330EF
:10076000F100BA30803107208331210022088F3117
:1007700068278331E830F0000330F100B130803178
:10078000072083318F312E2783318031042083313C
:1007900021001D0821389D001D08A3399D00E0306F
:1007A0009E00F001F00A02302000CD004D08F1005B
:1007B0000330CE004E08F2000430CF004F08F300A3
:1007C000F401F40AC3308031FF2083318F31752763
:1007D0008331003A0319ED2BEE2BF62BBA30813121
:1007E00095218331C330843172248331BA308F3103
:1007F00036278331003A0319FE2BFF2B4D2CBA30DC
:100800008F31522783318F31092783318F318227EE
:100810008331003A03190D2C0E2C4D2C2100460873
:10082000303EA500003003180130A6002C30A70090
:100830000030A8004508303EA90000300318013000
:10084000AA004408303EAB00003003180130AC0071
:100850000D30AF000030B0000A30AD000030AE0007
:1008600025088F313E278331210027088F313E270D
:100870008331210029088F313E27833121002B0845
:100880008F313E27833121002D088F313E27833160
:1008900021002F088F313E2783318F312727833165
:1008A000003A0319542C552CE62B8F310F27833136
:1008B00071082100A4007008A30024082000C600CD
:1008C000210023082000C5008031C22083318430FC
:1008D000F8000030F900C33081313D218331E62B2F
:1008E00080310228F5007C2D7508063E86008701C0
:1008F000013081027508063E860087010108031D4C
:10090000822C832C962C0230F30075088600870118
:10091000730881007508053E860087010108F30011
:100920007508073E86008701730881000130803119
:1009300025208431750A86008701010882316A22E8
:1009400084319B2D7508073E8600870101308102A6
:100950007508073E860087010108031DB02CB12CE5
:10096000C42C0330F30075088600870173088100EA
:100970007508043E860087010108F3007508063EED
:100980008600870173088100003080312520843182
:100990009B2D7508063E860087010130810275088F
:1009A000063E860087010108031DD72CD82CEB2CAE
:1009B0000430F3007508860087017308810075080C
:1009C000053E860087010108F3007508073E860092
:1009D0008701730881000230803125208431750839
:1009E000023E86008701010882316A2284319B2DF4
:1009F0007508073E86008701013081027508073EB1
:100A0000860087010108031D062D072D1A2D0530CC
:100A1000F300750886008701730881007508043E9D
:100A2000860087010108F3007508063E86008701ED
:100A30007308810000308031252084319B2D75089A
:100A4000063E86008701013081027508063E860059
:100A500087010108031D2D2D2E2D412D0630F30099
:100A6000750886008701730881007508053E8600B9
:100A700087010108F3007508073E860087017308A7
:100A8000810003308031252084317508033E8600C3
:100A90008701010882316A2284319B2D7508073E47
:100AA00086008701013081027508073E86008701B4
:100AB0000108031D5C2D5D2D6E2D750886008701D4
:100AC0008101810A7508043E860087010108F30050
:100AD0007508063E8600870173088100003080316A
:100AE000252084319B2D0A3082316A2284310230E4
:100AF000803125208431732D750886008701010817
:100B0000F300F4017408003A0319872D732D73085C
:100B1000013A0319742C033A0319A22C013A031960
:100B2000C92C073A0319F82C013A03191F2D033A6F
:100B300003194E2D732D0800200023088039A800CA
:100B40002808AD002335A8002808B300A21FA92D4E
:100B5000AA2DAB2D331433080319AF2DB02DBF2DA3
:100B6000330A031DB42DB52DBD2D0030A300003078
:100B7000A2000030A1000030A000A217C72D003055
:100B8000A3000030A2000030A1000030A000270820
:100B90008039A8002808AD062735A8002808B2002B
:100BA000A61FD32DD42DD52D321432080319D92DDB
:100BB000DA2DE92D320A031DDE2DDF2DE72D003061
:100BC000A7000030A6000030A5000030A400A61742
:100BD000F12D0030A7000030A6000030A500003045
:100BE000A40032080319F52DF62DFB2D3308031D43
:100BF000FA2DFB2D042E0030A3000030A20000309F
:100C0000A1000030A000F22F2008A8002808F00062
:100C100026088F31BA27853171082000B900700885
:100C2000B8003808A800A901AA01AB012B08B1003F
:100C30002A08B0002908AF002808AE003908A8002B
:100C4000A901AA01AB012B08B7002A08B6002908A0
:100C5000B5002808B4002108A8002808F0002508DD
:100C60008F31BA27853171082000B9007008B800AB
:100C70003808A800A901AA01AB012808AE07290875
:100C8000AF3D2A08B03D2B08B13D3908A800A901A5
:100C9000AA01AB012808B4072908B53D2A08B63DCA
:100CA0002B08B73D2208A8002808F00024088F313F
:100CB000BA27853171082000B9007008B8003808DB
:100CC000A800A901AA01AB012808AE072908AF3D79
:100CD0002A08B03D2B08B13D3908A800A901AA0196
:100CE000AB012808B4072908B53D2A08B63D2B08F2
:100CF000B73D0830AE35AF0DB00DB10D890B7A2E72
:100D00002108A8002808F00024088F31BA2785316F
:100D100071082000B9007008B8003808AE0739081B
:100D2000AF3D0030B03DB13D2008A8002808F000DC
:100D300025088F31BA27853171082000B900700865
:100D4000B8003808AE073908AF3D0030B03DB13DBE
:100D50000830AE35AF0DB00DB10D890BA92E2008AE
:100D6000A8002808F00024088F31BA2785317108BF
:100D70002000B9007008B8003808AE073908AF3D48
:100D80000030B03DB13D2108A8002808F000260839
:100D90008F31BA27853171082000B9007008B8007A
:100DA0003808B4073908B53D0030B63DB73D2208D4
:100DB000A8002808F00025088F31BA27853171086E
:100DC0002000B9007008B8003808B4073908B53DEC
:100DD0000030B63DB73D2208A8002808F0002608DC
:100DE0008F31BA27853171082000B9007008B8002A
:100DF0003808A8003908A900AA01AB010830A835B5
:100E0000A90DAA0DAB0D890BFF2E2808B4072908E0
:100E1000B53D2A08B63D2B08B73D2E08A8002F087F
:100E2000A9003008AA003108AB001830AB36AA0C74
:100E3000A90CA80C890B162F2808B4072908B53D62
:100E40002A08B63D2B08B73D0830AE35AF0DB00DC2
:100E5000B10D890B252F33083207A800A901A90D70
:100E60002808823EB800FF30293DB9004E2F0130DE
:100E7000B435B50DB60DB70D890B382FB11F412F05
:100E8000422F432F34140130AE35AF0DB00DB10DEC
:100E9000890B442FFF30B807FF30B93DB61F512FE3
:100EA000522F372FB201B11F562F572F732FFF30FC
:100EB0002E05A800FF302F05A900FF303005AA003D
:100EC0007F303105AB002B082A04290428040319BC
:100ED0006A2F6B2F6E2FB201B20A732F341C712F41
:100EE000722F732F6B2F32080319772F782FA02FB3
:100EF0000130B4070030B53D0030B63D0030B73D9D
:100F0000371C832F842FA02F3408A8003508A90090
:100F10003608AA003708AB000130AC00AB37AA0C8A
:100F2000A90CA80CAC0B8E2F2B08B7002A08B60012
:100F30002908B5002808B4000130B8070030B93DD1
:100F40003908803AA80080302802031DA92FFF30FD
:100F50003802031CAC2FAD2FB72F7F302000B70015
:100F60008030B6000030B5000030B400E62F20001D
:100F70003908803AA80080302802031DC12F0130B3
:100F800038020318C42FC52FD02F00302000B7001F
:100F90000030B6000030B5000030B400AD01E62FDF
:100FA00020003808A8002808B300FF30B405FF303F
:100FB000B5057F30B6050030B705331CE02FE12FB3
:100FC000E22FB6173336A8002808B7002D08A8006E
:100FD0002808B7043708A3003608A2003508A10086
:100FE0003408A00008002000D001D101D201D301B3
:100FF000D401D501D601D701D80120008331A72B18
:101E120021009D14080021009701080021001C08E0
:101E2200F1001B08F000080071082000D3007008C0
:101E3200D200080071082000D7007008D600080000
:101E420071082000D5007008D4000800031021009A
:101E52009D1C03140030093D0800E03021009E0063
:101E62009B019C011D309D000800F0007008083E97
:101E720086008701010802390800F0002000111EC7
:101E8200432F442F3F2F700823009A000800F93097
:101E920028009D009C01200093113D3028009E00E7
:101EA2000800F100FD30F0007108083E860087014D
:101EB2007008810508007030210099009801220005
:101EC200960121001A1F662F672F622F0800F1006A
:101ED2007108F000F00DF00D21001D087006833925
:101EE20070069D001D140800003020009319013077
:101EF200F000700803197E2F7F2F802F9311700836
:101F02000800F0012000111E872F882F8F2F230039
:101F12009E1E8C2F8D2F8F2FF001F00A7008080063
:101F22008F31A4278F318F315C278F318F310C276E
:101F32008F318F3148278F318F312E278F318F315B
:101F4200DD278F31080022008C018D012030210015
:101F52008C00E6308D00383023008D001F308C005D
:101F620024008D018C012100951722009D019E0104
:101F72000800F800F401F5017008F200F30172089C
:101F8200F6007308F700781CC72FC82FCC2F7608ED
:101F9200F4077708F53D0130F635F70D890BCD2FA3
:101FA2000310F80C7808031DD72FD82FC42F7508FB
:101FB200F1007408F0000800083023009F00903000
:101FC2009D0024309E0040309B0003309C00003076
:101FD200F0000030F1008F311B278F310030F0000C
:101FE2000030F1008F3121278F310030F0000030B6
:0E1FF200F1008F3115278F312000D801080033
:020000040001F9
:04000E00E43FFF3F8D
:00000001FF
