:10000000803102288731F32F8F31A92780318F313A
:10001000742780318F31212780318F3160278031E3
:100020008F31462780318031172080310800083019
:1000300023009F0090309D0024309E0040309B00A4
:1000400003309C000030F0000030F1008F31332786
:1000500080310030F0000030F1008F3139278031DD
:100060000030F0000030F1008F312D278031210069
:10007000A8010800F0007003031D3F284028452810
:1000800022000D140D128D115F2802307006031D21
:100090004A284B28502822000D108D150D125F287C
:1000A00003307006031D552856285B2822000D10CA
:1000B0008D110D165F2822000D100D128D110800F4
:1000C000700871040319652866288F28F501F50A60
:1000D00072280130F035F10D890B6A280130F400E7
:1000E0007408F507F11F75287628692871087302CE
:1000F000031D7C2870087202031C7F288028842836
:100100007008F2027108F33B0130F136F00C890BF4
:1001100085280130F502031D8E288F287628730864
:10012000F1007208F0000800F501F6017008710492
:1001300003199B289C28CB28F701F70AA82801302F
:10014000F035F10D890BA0280130F4007408F70791
:10015000F11FAB28AC289F280130F535F60D890B2F
:10016000AD2871087302031DB72870087202031CC2
:10017000BA28BB28C0287008F2027108F33B751436
:100180000130F136F00C890BC1280130F702031D54
:10019000CA28CB28AC287608F1007508F0000800C2
:1001A0003F302000CA007A30C9000530C800BC309A
:1001B000C7004508F0004608F100F201F3010030E5
:1001C00083310923803173082000A7007208A6003C
:1001D0007108A5007008A4004A08A3004908A200FD
:1001E0004808A1004708A00085319C2580312000E7
:1001F0002308BD002208BC002108BB002008BA006B
:1002000082310322803120003B08CC003A08CB0029
:100210004C08C6004B08C5000800F60076088600AA
:1002200087018101810A7008F500760A860087013E
:10023000750881007108F5007608023E8600870186
:10024000750881007208F5007608033E8600870174
:10025000750881007308F5007608043E8600870162
:10026000750881007408F5007608053E8600870150
:10027000750881007308F5007608063E8600870140
:10028000750881007408F5007608073E860087012E
:10029000750881000800FB000A30F0000030F10012
:1002A0007908F3007808F20080316020813170080D
:1002B000FA007B0A860087017A0881000A30F00084
:1002C0000030F1007908F3007808F20080319420C2
:1002D00081317108F9007008F8000A30F000003030
:1002E000F1007908F3007808F20080316020813154
:1002F0007008FA007B08023E860087017A088100B8
:100300000A30F0000030F1007908F3007808F200BC
:100310008031942081317108F9007008F8000A30AA
:10032000F0000030F1007908F3007808F200803125
:10033000602081317008FA007B08033E8600870147
:100340007A0881000800F4007408083E86008701DE
:10035000011CAB29AC29CE29740886008701013025
:10036000810241310030813B7F3174088600870172
:1003700016000104031DBD29BE29CE297408083EBC
:100380008600870181147408023E86008701740884
:1003900084008501403F803F413F813F7408043E17
:1003A00086008701403FF000413FF100423FF200EC
:1003B000433FF30073087204710470040319E129C8
:1003C000E229022AFF30F000FF30F100FF30F20096
:1003D000FF30F3007408043E86008701403FF007B9
:1003E000413FF13D423FF23D433FF33D7408043E3F
:1003F000860087017008C03F7108C13F7208C23F84
:100400007308C33F0800031020003C0D3D0DBE00E3
:100410003E08C4004408031D0E2A0F2A182A003083
:10042000BD000030BC000030BB000030BA00772AAD
:100430003A08BE003B08BF003C08C0003D08C100B0
:100440001F30C136C00CBF0CBE0C890B212A3E08E0
:10045000C2004208C300BC17FF30BA05FF30BB051D
:10046000FF30BC050030BD059630C402C41F392AD8
:100470003A2A522A4408803A973E0318402A412AD1
:10048000422A0F2A0130BD36BC0CBB0CBA0C890BBA
:10049000432A0130BE003E08C407031D502A512ADA
:1004A000422A672A20304402031C572A582A622A0B
:1004B0000F2A0130BA35BB0DBC0DBD0D890B5A2A70
:1004C0000130C4024408031D662A672A592A4308DA
:1004D00003196B2A6C2A772ABA09BB09BC09BD0922
:1004E000BA0A0319BB0A0319BC0A0319BD0A08009A
:1004F000F200DD2A22000C148C140C158C150C163D
:100500008C170C13082B22000C108C140C158C115A
:100510000C128C130C13082B22000C148C140C11CD
:100520008C150C168C130C17082B22000C148C1431
:100530000C158C150C128C130C17082B22000C10A8
:100540008C140C158C110C128C170C17082B220014
:100550000C148C100C158C150C128C170C17082B06
:1005600022000C148C100C158C150C168C170C1703
:10057000082B22000C148C140C158C110C128C13EB
:100580000C13082B22000C148C140C158C150C1653
:100590008C170C17082B22000C148C140C158C15BE
:1005A0000C128C170C17082B22000C148C140C1531
:1005B0008C150C168C178C17082B7208F000F101A3
:1005C0007108003A0319E52A082B7008003A03194C
:1005D0007A2A013A0319832A033A03198C2A013A29
:1005E0000319952A073A03199E2A013A0319A72AE3
:1005F000033A0319B02A013A0319B92A0F3A031929
:10060000C22A013A0319CB2A033A0319D42A082B28
:100610000800F800780803190E2B0F2B232BF31F6B
:10062000122B132B232B7009FA007109FB0072099E
:10063000FC007309FD00FA0A0319FB0A0319FC0AFE
:100640000319FD0A2B2B7308FD007208FC007108CA
:10065000FB007008FA007308720471047004031D33
:10066000322B332B3C2B0030F3000030F2000030F3
:10067000F1000030F000B42B9630F4007408F9005B
:100680004C2B0130F4007408F9070130FD36FC0CE6
:10069000FB0CFA0C890B462BFE307D05031D512BFC
:1006A000522B412B662B0130F4007408F9070130FE
:1006B000FA070030FB3D0030FC3D0030FD3D0130CD
:1006C000FD36FC0CFB0CFA0C890B602BFF307D0512
:1006D000031D6B2B6C2B532B762B0130F902013051
:1006E000FA35FB0DFC0DFD0D890B702BFC1B792BD6
:1006F0007A2B802B0230790203187F2B802B6D2BF5
:100700007918832B842B8C2BFF30FA05FF30FB05E7
:100710007F30FC05FF30FD050310F90C7908F4006B
:10072000F501F601F7011830F435F50DF60DF70D6A
:10073000890B942B7408FA047508FB047608FC04F2
:100740007708FD0478080319A62BA72BAC2BF31F01
:10075000AA2BAB2BAC2BFD177D08F3007C08F20015
:100760007B08F1007A08F00008002000CE01CF01DC
:10077000803104208331E830F0000330F1005F3035
:100780008F31BF278331200050088F31802783317C
:100790008F31462783318F312427833121001D0873
:1007A0001D389D001D089F399D00E0309E00F0011E
:1007B000F00AF101F10AF201F20A04302000CD0042
:1007C0004D08F300F401F40A683081310D218331C2
:1007D0008F318D278331003A0319EF2BF02BF82B43
:1007E0005F308131A32183316830843172248331B9
:1007F0005F308F314E278331003A0319002C012CD2
:100800004F2C5F308F316A2783318F311E27833120
:100810008F319A278331003A03190F2C102C4F2C5B
:1008200020006B08303ED100003003180130D200A8
:100830002C30D3000030D4006A08303ED5000030A0
:1008400003180130D6006908303ED7000030031885
:100850000130D8000D30DB000030DC000A30D90058
:100860000030DA0051088F315627833120005308B9
:100870008F3156278331200055088F315627833119
:10088000200057088F3156278331200059088F31B7
:100890005627833120005B088F31562783318F31F3
:1008A0003F278331003A0319562C572CE82B8F3100
:1008B0002727833171082000DE007008DD005E0804
:1008C000C6005D08C5008031D020833120005E085D
:1008D000F9005D08F800683081314B218331E82B45
:1008E00080310228F5007C2D7508063E86008701C0
:1008F000013081027508063E860087010108031D4C
:10090000822C832C962C0230F30075088600870118
:10091000730881007508053E860087010108F30011
:100920007508073E86008701730881000130803119
:100930003A208431750A86008701010882317822C5
:1009400084319B2D7508073E8600870101308102A6
:100950007508073E860087010108031DB02CB12CE5
:10096000C42C0330F30075088600870173088100EA
:100970007508043E860087010108F3007508063EED
:100980008600870173088100003080313A2084316D
:100990009B2D7508063E860087010130810275088F
:1009A000063E860087010108031DD72CD82CEB2CAE
:1009B0000430F3007508860087017308810075080C
:1009C000053E860087010108F3007508073E860092
:1009D000870173088100023080313A208431750824
:1009E000023E8600870101088231782284319B2DE6
:1009F0007508073E86008701013081027508073EB1
:100A0000860087010108031D062D072D1A2D0530CC
:100A1000F300750886008701730881007508043E9D
:100A2000860087010108F3007508063E86008701ED
:100A300073088100003080313A2084319B2D750885
:100A4000063E86008701013081027508063E860059
:100A500087010108031D2D2D2E2D412D0630F30099
:100A6000750886008701730881007508053E8600B9
:100A700087010108F3007508073E860087017308A7
:100A80008100033080313A2084317508033E8600AE
:100A9000870101088231782284319B2D7508073E39
:100AA00086008701013081027508073E86008701B4
:100AB0000108031D5C2D5D2D6E2D750886008701D4
:100AC0008101810A7508043E860087010108F30050
:100AD0007508063E8600870173088100003080316A
:100AE0003A2084319B2D0A308231782284310230C1
:100AF00080313A208431732D750886008701010802
:100B0000F300F4017408003A0319872D732D73085C
:100B1000013A0319742C033A0319A22C013A031960
:100B2000C92C073A0319F82C013A03191F2D033A6F
:100B300003194E2D732D0800200023088039A800CA
:100B40002808AD002335A8002808B300A21FA92D4E
:100B5000AA2DAB2D331433080319AF2DB02DBF2DA3
:100B6000330A031DB42DB52DBD2D0030A300003078
:100B7000A2000030A1000030A000A217C72D003055
:100B8000A3000030A2000030A1000030A000270820
:100B90008039A8002808AD062735A8002808B2002B
:100BA000A61FD32DD42DD52D321432080319D92DDB
:100BB000DA2DE92D320A031DDE2DDF2DE72D003061
:100BC000A7000030A6000030A5000030A400A61742
:100BD000F12D0030A7000030A6000030A500003045
:100BE000A40032080319F52DF62DFB2D3308031D43
:100BF000FA2DFB2D042E0030A3000030A20000309F
:100C0000A1000030A000F22F2008A8002808F00062
:100C100026088F31DD27853171082000B900700862
:100C2000B8003808A800A901AA01AB012B08B1003F
:100C30002A08B0002908AF002808AE003908A8002B
:100C4000A901AA01AB012B08B7002A08B6002908A0
:100C5000B5002808B4002108A8002808F0002508DD
:100C60008F31DD27853171082000B9007008B80088
:100C70003808A800A901AA01AB012808AE07290875
:100C8000AF3D2A08B03D2B08B13D3908A800A901A5
:100C9000AA01AB012808B4072908B53D2A08B63DCA
:100CA0002B08B73D2208A8002808F00024088F313F
:100CB000DD27853171082000B9007008B8003808B8
:100CC000A800A901AA01AB012808AE072908AF3D79
:100CD0002A08B03D2B08B13D3908A800A901AA0196
:100CE000AB012808B4072908B53D2A08B63D2B08F2
:100CF000B73D0830AE35AF0DB00DB10D890B7A2E72
:100D00002108A8002808F00024088F31DD2785314C
:100D100071082000B9007008B8003808AE0739081B
:100D2000AF3D0030B03DB13D2008A8002808F000DC
:100D300025088F31DD27853171082000B900700842
:100D4000B8003808AE073908AF3D0030B03DB13DBE
:100D50000830AE35AF0DB00DB10D890BA92E2008AE
:100D6000A8002808F00024088F31DD27853171089C
:100D70002000B9007008B8003808AE073908AF3D48
:100D80000030B03DB13D2108A8002808F000260839
:100D90008F31DD27853171082000B9007008B80057
:100DA0003808B4073908B53D0030B63DB73D2208D4
:100DB000A8002808F00025088F31DD27853171084B
:100DC0002000B9007008B8003808B4073908B53DEC
:100DD0000030B63DB73D2208A8002808F0002608DC
:100DE0008F31DD27853171082000B9007008B80007
:100DF0003808A8003908A900AA01AB010830A835B5
:100E0000A90DAA0DAB0D890BFF2E2808B4072908E0
:100E1000B53D2A08B63D2B08B73D2E08A8002F087F
:100E2000A9003008AA003108AB001830AB36AA0C74
:100E3000A90CA80C890B162F2808B4072908B53D62
:100E40002A08B63D2B08B73D0830AE35AF0DB00DC2
:100E5000B10D890B252F33083207A800A901A90D70
:100E60002808823EB800FF30293DB9004E2F0130DE
:100E7000B435B50DB60DB70D890B382FB11F412F05
:100E8000422F432F34140130AE35AF0DB00DB10DEC
:100E9000890B442FFF30B807FF30B93DB61F512FE3
:100EA000522F372FB201B11F562F572F732FFF30FC
:100EB0002E05A800FF302F05A900FF303005AA003D
:100EC0007F303105AB002B082A04290428040319BC
:100ED0006A2F6B2F6E2FB201B20A732F341C712F41
:100EE000722F732F6B2F32080319772F782FA02FB3
:100EF0000130B4070030B53D0030B63D0030B73D9D
:100F0000371C832F842FA02F3408A8003508A90090
:100F10003608AA003708AB000130AC00AB37AA0C8A
:100F2000A90CA80CAC0B8E2F2B08B7002A08B60012
:100F30002908B5002808B4000130B8070030B93DD1
:100F40003908803AA80080302802031DA92FFF30FD
:100F50003802031CAC2FAD2FB72F7F302000B70015
:100F60008030B6000030B5000030B400E62F20001D
:100F70003908803AA80080302802031DC12F0130B3
:100F800038020318C42FC52FD02F00302000B7001F
:100F90000030B6000030B5000030B400AD01E62FDF
:100FA00020003808A8002808B300FF30B405FF303F
:100FB000B5057F30B6050030B705331CE02FE12FB3
:100FC000E22FB6173336A8002808B7002D08A8006E
:100FD0002808B7043708A3003608A2003508A10086
:100FE0003408A00008002100A001A101A201A30172
:100FF000A401A501A601A701A80120008331B52BFA
:101E3C0021009D14080021009701080028001E15A0
:101E4C00080021001C08F1001B08F00008007108B4
:101E5C002100A3007008A200080071082100A7004F
:101E6C007008A600080071082100A5007008A400E5
:101E7C000800031021009D1C03140030093D0800CC
:101E8C00E03021009E009B019C011D309D0008004C
:101E9C00F0007008083E860087010108023908002E
:101EAC00F0002000111E5B2F5C2F572F70082300B1
:101EBC009A000800F93028009D009C012000931125
:101ECC003D3028009E000800F100FD30F000710844
:101EDC00083E8600870170088105080070302100DB
:101EEC00990098012200960121001A1F7E2F7F2F46
:101EFC007A2F0800F1007108F000F00DF00D2100B0
:101F0C001D087006833970069D001D1408000030F2
:101F1C00200093190130F00070080319962F972FA9
:101F2C00982F931170080800F0012000111E9F2FAC
:101F3C00A02FA72F23009E1EA42FA52FA72FF001A3
:101F4C00F00A7008080022008C018D01203021005D
:101F5C008C00E6308D00383023008D001F308C0053
:101F6C0024008D018C012100951722009D019E01FA
:101F7C000800F3007308083E860087010114FD3049
:101F8C00F2007308083E8600870172088105730809
:101F9C00023E860087017008C03F7108C13F73087C
:101FAC00860087017008C03F7108C13F0800F80027
:101FBC00F401F5017008F200F3017208F6007308E1
:101FCC00F700781CEA2FEB2FEF2F7608F407770831
:101FDC00F53D0130F635F70D890BF02F0310F80C99
:101FEC007808031DFA2FFB2FE72F7508F1007408F2
:041FFC00F0000800E9
:020000040001F9
:04000E00E43FFF3F8D
:00000001FF
