:0400000059EF00F0C4
:100008005A82FACF02F0FBCF03F0D9CF04F0DACF4F
:1000180005F0F2AC12EF00F014EF00F04FEF00F033
:100028000E01C5A91AEF00F01CEF00F032EF00F046
:10003800CDA921EF00F023EF00F032EF00F002D855
:1000480030EF00F00500FA6E0001E351FD6EE45157
:10005800FE6EFF6AFA5012004FEF00F0C5AB37EFA3
:1000680000F039EF00F04FEF00F0CDAB3EEF00F0BD
:1000780040EF00F04FEF00F002D84DEF00F0050020
:10008800FA6E0001E151FD6EE251FE6EFF6AFA5010
:1000980012004FEF00F005C0DAFF04C0D9FF03C01B
:1000A800FBFF02C0FAFF5A9211004EEF10F0D4EF96
:1000B80006F020EE1CF07751D9267851DA22010E8D
:1000C800DF6E77C0D9FF78C0DAFF570EDE18D8A4E4
:1000D80070EF00F072EF00F07CEF00F020EE01F01E
:1000E8007751D9267851DA22010EDF6E18EF07F022
:1000F80077C0D9FF78C0DAFF520EDE18D8A487EF90
:1001080000F089EF00F093EF00F020EE01F0775156
:10011800D9267851DA22020EDF6E18EF07F020EEAA
:100128001CF07751D9267851DA22000EDF6EB80E0E
:10013800716FFF0E726F89EC12F018EF07F018EF6D
:1001480007F077C0D9FF78C0DAFF420EDE18D8A4CE
:10015800B0EF00F0B2EF00F0CCEF00F020EE03F0CB
:100168007751D9267851DA22000EDF6E20EE02F0A0
:100178007751D9267851DA22020EDF6E20EE01F08F
:100188007751D9267851DA22030EDF6E18EF07F07F
:1001980077C0D9FF78C0DAFF530EDE18D8A4D7EF9E
:1001A80000F0D9EF00F0F3EF00F020EE03F0775104
:1001B800D9267851DA22000EDF6E20EE02F0775150
:1001C800D9267851DA22040EDF6E20EE01F077513D
:1001D800D9267851DA22040EDF6E18EF07F020EEE8
:1001E80001F07751D9267851DA22000EDF6E20EE21
:1001F8001CF07751D9267851DA22000EDF6EBF0E37
:10020800716FFF0E726F89EC12F018EF07F077C06C
:10021800D9FF78C0DAFF420EDE18D8A416EF01F035
:1002280018EF01F032EF01F020EE03F07751D926F4
:100238007851DA22000EDF6E20EE02F07751D926CF
:100248007851DA22010EDF6E20EE01F07751D926BF
:100258007851DA22050EDF6E18EF07F077C0D9FF64
:1002680078C0DAFF530EDE18D8A43DEF01F03FEF57
:1002780001F059EF01F020EE03F07751D9267851BB
:10028800DA22000EDF6E20EE02F07751D92678517F
:10029800DA22030EDF6E20EE01F07751D92678516D
:1002A800DA22060EDF6E18EF07F020EE01F0775124
:1002B800D9267851DA22000EDF6E20EE1CF0775135
:1002C800D9267851DA22000EDF6EC60E716FFF0E46
:1002D800726F89EC12F018EF07F077C0D9FF78C079
:1002E800DAFF3A0EDF607BEF01F07DEF01F0A6EF59
:1002F80001F077C0D9FF78C0DAFF2F0EDF6487EFEF
:1003080001F089EF01F0A6EF01F020EE03F077513C
:10031800D9267851DA22DF50796F795177257A6FAB
:10032800000E78217B6F040E7A25D96E000E7B2192
:10033800DA6E77C0E1FF78C0E2FFE750D00FDF6EDA
:10034800F3EF01F077C0D9FF78C0DAFF470EDF601E
:10035800B0EF01F0B2EF01F0DBEF01F077C0D9FFA9
:1003680078C0DAFF400EDF64BCEF01F0BEEF01F0A9
:10037800DBEF01F020EE03F07751D9267851DA222D
:10038800DF50796F795177257A6F000E78217B6F6E
:10039800040E7A25D96E000E7B21DA6E77C0E1FF54
:1003A80078C0E2FFE750C90FDF6EF3EF01F020EEEF
:1003B80001F07751D9267851DA22000EDF6E20EE4F
:1003C8001CF07751D9267851DA22000EDF6ECD0E57
:1003D800716FFF0E726F89EC12F018EF07F020EEC4
:1003E80003F07751D9267851DA22DF2A20EE03F07C
:1003F8007751D9267851DA22030EDF6406EF02F02E
:1004080008EF02F018EF07F020EE03F07751D92635
:100418007851DA22000EDF6E20EE01F07751D926EE
:100428007851DA220B0EDF6E18EF07F077C0D9FF8C
:1004380078C0DAFF3A0EDF6024EF02F026EF02F010
:100448004FEF02F077C0D9FF78C0DAFF2F0EDF64D4
:1004580030EF02F032EF02F04FEF02F020EE03F03F
:100468007751D9267851DA22DF50796F795177257B
:100478007A6F000E78217B6F040E7A25D96E000EF4
:100488007B21DA6E77C0E1FF78C0E2FFE750D00F3A
:10049800DF6E9CEF02F077C0D9FF78C0DAFF470E15
:1004A800DF6059EF02F05BEF02F084EF02F077C0F3
:1004B800D9FF78C0DAFF400EDF6465EF02F067EF1E
:1004C80002F084EF02F020EE03F07751D92678513C
:1004D800DA22DF50796F795177257A6F000E78210B
:1004E8007B6F040E7A25D96E000E7B21DA6E77C0F9
:1004F800E1FF78C0E2FFE750C90FDF6E9CEF02F022
:1005080020EE01F07751D9267851DA22000EDF6EFD
:1005180020EE1CF07751D9267851DA22000EDF6ED2
:10052800D40E716FFF0E726F89EC12F018EF07F09E
:1005380020EE03F07751D9267851DA22DF2A20EE0F
:1005480003F07751D9267851DA22030EDF64AFEF32
:1005580002F0B1EF02F018EF07F020EE03F0775148
:10056800D9267851DA22000EDF6E20EE01F077519D
:10057800D9267851DA22070EDF6E18EF07F077C018
:10058800D9FF78C0DAFF3A0EDF60CDEF02F0CFEF87
:1005980002F0F8EF02F077C0D9FF78C0DAFF2F0E2B
:1005A800DF64D9EF02F0DBEF02F0F8EF02F020EEA3
:1005B80003F07751D9267851DA22DF50796F7951D3
:1005C80077257A6F000E78217B6F040E7A25D96E15
:1005D800000E7B21DA6E77C0E1FF78C0E2FFE750BA
:1005E800D00FDF6E45EF03F077C0D9FF78C0DAFF90
:1005F800470EDF6002EF03F004EF03F02DEF03F086
:1006080077C0D9FF78C0DAFF400EDF640EEF03F041
:1006180010EF03F02DEF03F020EE03F07751D92609
:100628007851DA22DF50796F795177257A6F000E89
:1006380078217B6F040E7A25D96E000E7B21DA6E45
:1006480077C0E1FF78C0E2FFE750C90FDF6E45EFE2
:1006580003F020EE01F07751D9267851DA22000E06
:10066800DF6E20EE1CF07751D9267851DA22000E81
:10067800DF6EDB0E716FFF0E726F89EC12F018EFF0
:1006880007F020EE03F07751D9267851DA22DF2AD5
:1006980020EE03F07751D9267851DA22030EDF6471
:1006A80058EF03F05AEF03F018EF07F020EE03F0CD
:1006B8007751D9267851DA22000EDF6E20EE01F04C
:1006C8007751D9267851DA22070EDF6E18EF07F036
:1006D80077C0D9FF78C0DAFF3A0EDF6076EF03F013
:1006E80078EF03F0A1EF03F077C0D9FF78C0DAFF05
:1006F8002F0EDF6482EF03F084EF03F0A1EF03F025
:1007080020EE03F07751D9267851DA22DF50796F3D
:10071800795177257A6F000E78217B6F040E7A2540
:10072800D96E000E7B21DA6E77C0E1FF78C0E2FF58
:10073800E750D00FDF6EEEEF03F077C0D9FF78C037
:10074800DAFF470EDF60ABEF03F0ADEF03F0D6EF53
:1007580003F077C0D9FF78C0DAFF400EDF64B7EF47
:1007680003F0B9EF03F0D6EF03F020EE03F0775172
:10077800D9267851DA22DF50796F795177257A6F47
:10078800000E78217B6F040E7A25D96E000E7B212E
:10079800DA6E77C0E1FF78C0E2FFE750C90FDF6E7D
:1007A800EEEF03F020EE01F07751D9267851DA22E6
:1007B800000EDF6E20EE1CF07751D9267851DA2230
:1007C800000EDF6EE20E716FFF0E726F89EC12F091
:1007D80018EF07F020EE03F07751D9267851DA2286
:1007E800DF2A20EE03F07751D9267851DA22030E5A
:1007F800DF6401EF04F003EF04F018EF07F020EED8
:1008080003F07751D9267851DA22000EDF6E20EEF8
:1008180001F07751D9267851DA22070EDF6E18EFEA
:1008280007F077C0D9FF78C0DAFF2C0EDE18D8A4FD
:1008380020EF04F022EF04F06DEF04F020EE02F058
:100848007751D9267851DA22020EDE18D8A42FEF74
:1008580004F031EF04F03BEF04F020EE01F07751A3
:10086800D9267851DA22080EDF6E18EF07F020EE4D
:1008780002F07751D9267851DA22030EDE18D8A46F
:1008880048EF04F04AEF04F054EF04F020EE01F0D2
:100898007751D9267851DA22090EDF6E18EF07F062
:1008A80020EE02F07751D9267851DA22040EDE18AC
:1008B800D8A461EF04F063EF04F0A3EF00F020EE9A
:1008C80001F07751D9267851DA220A0EDF6E18EF37
:1008D80007F020EE01F07751D9267851DA22000E80
:1008E800DF6E20EE1CF07751D9267851DA22000EFF
:1008F800DF6EE90E716FFF0E726F89EC12F018EF60
:1009080007F077C0D9FF78C0DAFF3A0EDF608FEFC3
:1009180004F091EF04F0BAEF04F077C0D9FF78C083
:10092800DAFF2F0EDF649BEF04F09DEF04F0BAEFBF
:1009380004F020EE03F07751D9267851DA22DF50FF
:10094800796F795177257A6F000E78217B6F080EC1
:100958007A25D96E000E7B21DA6E77C0E1FF78C068
:10096800E2FFE750D00FDF6E07EF05F077C0D9FF41
:1009780078C0DAFF470EDF60C4EF04F0C6EF04F07A
:10098800EFEF04F077C0D9FF78C0DAFF400EDF64DC
:10099800D0EF04F0D2EF04F0EFEF04F020EE03F014
:1009A8007751D9267851DA22DF50796F7951772536
:1009B8007A6F000E78217B6F080E7A25D96E000EAB
:1009C8007B21DA6E77C0E1FF78C0E2FFE750C90FFC
:1009D800DF6E07EF05F020EE01F07751D926785148
:1009E800DA22000EDF6E20EE1CF07751D9267851FE
:1009F800DA22000EDF6EF00E716FFF0E726F89EC57
:100A080012F018EF07F020EE03F07751D92678514D
:100A1800DA22DF2A20EE03F07751D9267851DA223C
:100A2800010EDF641AEF05F01CEF05F018EF07F070
:100A380020EE03F07751D9267851DA22000EDF6EC6
:100A480020EE01F07751D9267851DA220B0EDF6EAD
:100A580018EF07F077C0D9FF78C0DAFF3A0EDF60E9
:100A680038EF05F03AEF05F063EF05F077C0D9FFEE
:100A780078C0DAFF2F0EDF6444EF05F046EF05F08B
:100A880063EF05F020EE03F07751D9267851DA228A
:100A9800DF50796F795177257A6F000E78217B6F57
:100AA8000A0E7A25D96E000E7B21DA6E77C0E1FF37
:100AB80078C0E2FFE750D00FDF6EB0EF05F077C0E7
:100AC800D9FF78C0DAFF470EDF606DEF05F06FEFF2
:100AD80005F098EF05F077C0D9FF78C0DAFF400E2F
:100AE800DF6479EF05F07BEF05F098EF05F020EE75
:100AF80003F07751D9267851DA22DF50796F79518E
:100B080077257A6F000E78217B6F0A0E7A25D96EC9
:100B1800000E7B21DA6E77C0E1FF78C0E2FFE75074
:100B2800C90FDF6EB0EF05F020EE01F07751D9263E
:100B38007851DA22000EDF6E20EE1CF07751D926AC
:100B48007851DA22000EDF6EA00E716FFF0E726F01
:100B580089EC12F018EF07F020EE03F07751D92650
:100B68007851DA22DF2A20EE03F07751D92678511E
:100B7800DA22010EDF64C3EF05F0C5EF05F018EFC8
:100B880007F020EE03F07751D9267851DA22000ECB
:100B9800DF6E20EE01F07751D9267851DA220B0E5C
:100BA800DF6E18EF07F077C0D9FF78C0DAFF3A0E8A
:100BB800DF60E1EF05F0E3EF05F00CEF06F077C03A
:100BC800D9FF78C0DAFF2F0EDF64EDEF05F0EFEF05
:100BD80005F00CEF06F020EE03F07751D926785196
:100BE800DA22DF50796F795177257A6F000E7821F4
:100BF8007B6F0C0E7A25D96E000E7B21DA6E77C0DA
:100C0800E1FF78C0E2FFE750D00FDF6E59EF06F042
:100C180077C0D9FF78C0DAFF470EDF6016EF06F01D
:100C280018EF06F041EF06F077C0D9FF78C0DAFF79
:100C3800400EDF6422EF06F024EF06F041EF06F0E5
:100C480020EE03F07751D9267851DA22DF50796FF8
:100C5800795177257A6F000E78217B6F0C0E7A25F3
:100C6800D96E000E7B21DA6E77C0E1FF78C0E2FF13
:100C7800E750C90FDF6E59EF06F020EE01F077510B
:100C8800D9267851DA22000EDF6E20EE1CF077515B
:100C9800D9267851DA22000EDF6EA80E716FFF0E8A
:100CA800726F89EC12F018EF07F020EE03F077511D
:100CB800D9267851DA22DF2A20EE03F07751D92697
:100CC8007851DA22DFB06BEF06F06DEF06F075EFC2
:100CD80006F020EE01F07751D9267851DA22070E76
:100CE800DF6E20EE03F07751D9267851DA221F0EF5
:100CF800DF6481EF06F083EF06F018EF07F020EECF
:100D080003F07751D9267851DA22000EDF6E20EEF3
:100D180001F07751D9267851DA220B0EDF6E18EFE1
:100D280007F077C0D9FF78C0DAFF0A0EDE18D8A41A
:100D3800A0EF06F0A2EF06F0BCEF06F020EE1DF0E3
:100D48007751D9267851DA22010EDF6E20EE1CF099
:100D58007751D9267851DA22000EDF6E20EE01F0A5
:100D68007751D9267851DA22000EDF6E18EF07F096
:100D780020EE01F07751D9267851DA22000EDF6E85
:100D880020EE1CF07751D9267851DA22000EDF6E5A
:100D9800B00E716FFF0E726F89EC12F018EF07F04A
:100DA800000120EE01F07751D9267851DA22DF5080
:100DB800796F7A6B7A51000AD8B4E5EF06F018EF2C
:100DC80007F07951000AD8B45DEF00F0010AD8B4F1
:100DD800A5EF00F0030AD8B40BEF01F0010AD8B46C
:100DE8001AEF02F0070AD8B46CEF03F0010AD8B47E
:100DF80071EF01F0030AD8B4C3EF02F0010AD8B4C6
:100E080015EF04F00F0AD8B485EF04F0010AD8B43E
:100E18002EEF05F0030AD8B4D7EF05F0010AD8B4CD
:100E280095EF06F018EF07F012000001D9BF1FEF89
:100E380007F021EF07F022EF07F0DA93D9BF2FEF81
:100E480007F0D95106E1D805D8B02DEF07F02FEFFC
:100E580007F035EF07F0000E3B6E010E3A6E39EFE2
:100E680007F0D8C03AF0D9C03BF0D6C03CF0D7C0A4
:100E78003DF0DAA942EF07F044EF07F048EF07F03A
:100E8800FE0E3C26FF0E3D2225C03EF026C03FF058
:100E980027C040F028C041F029C042F02AC043F0E2
:100EA8002BC044F02CC045F0000E476E1F0E466E56
:100EB800000E0101DF6F14EF08F04606D8A04706C0
:100EC8000F0E3E14486E496A49BE74EF07F0495048
:100ED80009E10A0E485CD8A074EF07F076EF07F036
:100EE8007EEF07F0570E4824486E000E4920496EE1
:100EF80084EF07F0300E4824486E000E4920496EF2
:100F0800BF0E2E6EFF0E2F6E2D50306E316A2E5092
:100F180030262F50312231500AE11A0E305CD8A009
:100F280098EF07F09BEF07F0010E9CEF07F0000E1B
:100F3800366E376A36503710D8B4A5EF07F0A7EFEA
:100F480007F0D7EF07F09F0E2E6EFF0E2F6E200EC4
:100F58004810306E000E4910316E2E5030262F503A
:100F6800312231500AE11A0E305CD8A0BEEF07F0EA
:100F7800C1EF07F0010EC2EF07F0000E386E396AB4
:100F880038503910D8B4CBEF07F0CDEF07F0D7EFD2
:100F980007F048C00CF049C00DF099EC0FF00CC0F8
:100FA80048F00DC049F0C00E4624D96E010E472006
:100FB800DA6E48C0DFFF3A06D8A03B063C06D8A048
:100FC8003D063EC02EF03FC02FF040C030F041C07B
:100FD80031F042C032F043C033F044C034F045C071
:100FE80035F0050E01EF08F0D8903532343233323F
:100FF8003232313230322F322E32E82EF8EF07F00B
:101008002EC03EF02FC03FF030C040F031C041F05C
:1010180032C042F033C043F034C044F035C045F02C
:1010280047BE20EF08F0475009E1020E465CD8A001
:1010380020EF08F022EF08F053EF08F03E503F1081
:10104800401041104210431044104510D8A42FEF0F
:1010580008F031EF08F061EF07F03BBE3EEF08F013
:101068003B5006E13A04D8B03CEF08F03EEF08F0F8
:1010780061EF07F03DBE49EF08F03D5008E13C0440
:10108800D8A049EF08F04BEF08F053EF08F0000143
:10109800DAB351EF08F053EF08F061EF07F0000101
:1010A800DAA959EF08F05BEF08F071EF08F046068F
:1010B800D8A04706C00E4624D96E010E4720DA6E26
:1010C8002DC0DFFF4606D8A04706C00E4624D96EBD
:1010D800010E4720DA6E300EDF6E23C018F024C0F0
:1010E80019F0C00E46241A6E010E47201B6E3CC034
:1010F8001CF03DC01DF0A3EC0BF018C023F019C084
:1011080024F012004CC0D9FF4DC0DAFFDECFF6FF45
:10111800DDCFF7FFF86A0800F550250AD8A497EF45
:1011280008F099EF08F057EF09F04CC0D9FF4DC00F
:10113800DAFFDE2A000EDD22000E0001D76F000E56
:10114800D66FD6C0DAF0D7C0DBF0D869D9694CC001
:10115800D9FF4DC0DAFFDECFF6FFDDCFF7FFF86A23
:101168000800F550780AD8B4BCEF08F0BEEF08F0D4
:10117800D1EF08F04CC0D9FF4DC0DAFFDECFF6FF43
:10118800DDCFF7FFF86A0800F550580AD8A4CFEF6A
:1011980008F0D1EF08F020EF09F04CC0D9FF4DC09E
:1011A800DAFFDECFF6FFDDCFF7FFF86A0800F5CFEC
:1011B80068F04CC0D9FF4DC0DAFFDE2A000EDD22F0
:1011C8004EC0D9FF4FC0DAFFDFCF50F0020EDE2647
:1011D800DFCF51F0000EDD2250C0D9FF51C0DAFF39
:1011E800DECF52F0DDCF53F052C060F053C061F053
:1011F800626B636B646B656B666B676B4AC023F0ED
:101208004BC024F060C025F061C026F062C027F012
:1012180063C028F064C029F065C02AF066C02BF0CE
:1012280067C02CF068C02DF019EC07F023C04AF015
:1012380024C04BF073EF09F04CC0D9FF4DC0DAFF62
:10124800DECFF6FFDDCFF7FFF86A0800F550250A74
:10125800D8A431EF09F033EF09F04AEF09F04CC098
:10126800D9FF4DC0DAFFDE2A000EDD22000E096E1E
:10127800250E086E4AC00AF04BC00BF069EC0DF061
:10128800000E4B6E010E4A6E73EF09F04CC0D9FF89
:101298004DC0DAFFDE2A000EDD22000E4B6E000E76
:1012A8004A6E73EF09F04CC0D9FF4DC0DAFFDECFAC
:1012B800F6FFDDCFF7FFF86A0800F550086E096AF7
:1012C8004AC00AF04BC00BF069EC0DF04CC0D9FFD6
:1012D8004DC0DAFFDE2A000EDD2244EF09F01200CD
:1012E800C0EC12F0F28EF28C860E066E260E076E99
:1012F8007CEC13F0000E0201016F000E1D6F000E52
:101308001C6F869010EC13F00009D8B48EEF09F02A
:1013180090EF09F0BDEF09F002011C05D8A497EF82
:1013280009F099EF09F0BDEF09F0000E1C6F0E01EE
:10133800CA9B000E0201016F000E95EC13F0500ECF
:1013480099EC13F086B0ABEF09F0AEEF09F0010E9F
:10135800AFEF09F0000EFF0A0001AF6F8650AF191A
:10136800FE0BAF19866E8B0E716FFF0E726F89ECD4
:1013780012F00001DC51D8B4C4EF09F0C6EF09F04F
:10138800D9EF09F00E01CA9B000E95EC13F0500E30
:1013980099EC13F0000E0001DC6FDDC000F2000EC6
:1013A800776F020E786F5BEC00F002010205D8A49B
:1013B800E0EF09F0E2EF09F0F5EF09F01D05D8A418
:1013C800E8EF09F0EAEF09F0F5EF09F0000E026F17
:1013D800000E1D6F000E0001776F020E786F1AEC79
:1013E8000DF0020E02010219D8A4FDEF09F0FFEF7B
:1013F80009F012EF0AF01D05D8A405EF0AF007EF6F
:101408000AF012EF0AF0000E026F000E1D6F000EB8
:101418000001776F020E786F36EC0BF0030E0201B5
:101428000219D8A41AEF0AF01CEF0AF02FEF0AF0FD
:101438001D05D8A422EF0AF024EF0AF02FEF0AF0D6
:10144800000E026F000E1D6F000E0001776F020E76
:10145800786F50EC0AF0040E02010219D8A437EF95
:101468000AF039EF0AF086EF09F01D05D8A43FEF1E
:101478000AF041EF0AF086EF09F0000E026F000E45
:101488001D6F000E0001776F020E786FC7EC0AF02F
:1014980086EF09F059EF00F0000120EE05F07751D2
:1014A800D9267851DA22DF50546E20EE04F07751B5
:1014B800D9267851DA22DF50100DF3505424AB6F3F
:1014C80020EE07F07751D9267851DA22DF50546E92
:1014D80020EE06F07751D9267851DA22DF50100D28
:1014E800F3505424AC6F20EE0BF07751D926785185
:1014F800DA22DF50546E20EE0AF07751D92678515F
:10150800DA22DF50100DF3505424AD6FAB0E176E76
:10151800000E186E000E1A6E020E196E500EF7ECC1
:101528000FF0790E176E000E186EADC019F01A6A1A
:10153800500E74EC10F0000E0001AE6FB7EF0AF019
:10154800F70E716FFF0E726F790EAE25D96EDA6ADB
:10155800000EDA22DF50546E5450736F746B89ECAE
:1015680012F00001AE2BAD51AE5DD8A0BEEF0AF06F
:10157800C0EF0AF0A4EF0AF03C0E716FFF0E726F15
:1015880089EC12F01200000E0001916F20EE05F0B8
:101598007751D9267851DA22DF50796F20EE04F09E
:1015A8007751D9267851DA22DF50100DF35079257A
:1015B8007E6F20EE07F07751D9267851DA22DF5076
:1015C800796F20EE06F07751D9267851DA22DF506C
:1015D800100DF35079257F6F020E906F7E0E9025C7
:1015E800D96EDA6A000EDA2291517725796F000EEA
:1015F80078217A6F0D0E7925E16E000E7A21E26E60
:10160800E7507B6F915177257C6F000E78217D6FB5
:101618000C0E7C25E16E000E7D21E26EE750100D68
:10162800F3507B25DF6E9151020F916F902B110EB5
:10163800906521EF0BF023EF0BF0F2EF0AF07E0E2E
:10164800176E000E186E000E1A6E120E196E500EDE
:10165800F7EC0FF0970E0001716FFF0E726F89ECB7
:1016680012F01200000120EE05F07751D9267851CA
:10167800DA22DF50546E20EE04F07751D9267851E3
:10168800DA22DF50100DF3505424796F20EE07F062
:101698007751D9267851DA22DF50546E20EE06F0C1
:1016A8007751D9267851DA22DF50100DF35054249F
:1016B8007A6F20EE09F07751D9267851DA22DF5077
:1016C800546E20EE08F07751D9267851DA22DF508F
:1016D800100DF35054247C6F790E176E000E186E9F
:1016E800000E1A6E030E196E500EF7EC0FF0790EFD
:1016F800176E000E186E000E1A6E020E196E500E3E
:10170800F7EC0FF07C0E176E000E186E000E1A6EB6
:10171800010E196E500E74EC10F0F70E0001716F87
:10172800FF0E726F7CC073F0746B89EC12F03C0E84
:101738000001716FFF0E726F89EC12F01200000148
:10174800DAA1A9EF0BF0ABEF0BF0B5EF0BF01AC075
:1017580011F01BC012F018C013F019C014F097EC68
:1017680010F01DBEBAEF0BF0BCEF0BF0C2EF0BF0A0
:101778001CC021F01DC022F0C6EF0BF0000E226E37
:10178800000E216E000E206E000E1F6ED8EF0BF0BB
:10179800000E096E200E086E18C00AF019C00BF072
:1017A80069EC0DF01F4A202A21501F5C2050800A46
:1017B8001E6E2250800A1E58D8A0E5EF0BF0E7EF06
:1017C8000BF0CCEF0BF00001DAB1EDEF0BF0EFEF1F
:1017D8000BF0F9EF0BF01AC011F01BC012F018C093
:1017E80013F019C014F097EC10F01AC006F01BC0E3
:1017F80007F093EC11F021500624186E22500720B0
:10180800196E120030EC13F00009D8B40EEF0CF08A
:1018180010EF0CF04BEF0CF01EEF0CF0BDEC13F0DA
:1018280067EF0CF0B9EC13F067EF0CF0B1EC13F0C4
:1018380067EF0CF0C2C00FF0C3C010F002D82FEF52
:101848000CF00500FA6E0001B651FD6EB751FE6E40
:10185800FF6AFA501200116E126A1250000AD8B4C8
:1018680038EF0CF01AEF0CF01150010AD8B41AEF47
:101878000CF0030AD8B412EF0CF0010AD8B416EF32
:101888000CF0070AD8B41AEF0CF01AEF0CF00001AC
:10189800D391CDC0D9FFCEC0DAFFCD4BCE2BDF50D0
:1018A800C1EC13F00001CF07D8A0D007CF51D01159
:1018B800D8A461EF0CF063EF0CF066EF0CF0060EA5
:1018C80067EF0CF0030E1200000E5724D96EDA6A87
:1018D800010EDA22000EDF6E9DA475EF0CF077EF93
:1018E8000CF08CEF0CF0000E5724D96EDA6A010E5A
:1018F800DA220101DF8202D88CEF0CF00500FA6EC3
:101908000001DF51FD6EE051FE6EFF6AFA501200D1
:101918009DA291EF0CF093EF0CF0A7EF0CF0000EE6
:101928005724D96EDA6A010EDA220101DF8402D85F
:10193800A7EF0CF00500FA6EF351FD6EF451FE6E40
:10194800FF6AFA501200000E5724D96EDA6A010EA7
:10195800DA22DF50D8B4B3EF0CF0B5EF0CF0C4EFD7
:101968000CF002D8C2EF0CF00500FA6E0101F1513B
:10197800FD6EF251FE6EFF6AFA501200C6EF0CF0CF
:1019880074EC12F01200DCEC13F0CDC0D9FFCEC01D
:10199800DAFFDF6E0001CD4BCE2BCF07D8A0D007E2
:1019A800CF51D011D8B4DBEF0CF0DDEF0CF0E2EF43
:1019B8000CF0C8EC13F0050E19EF0DF0D387EDEF1E
:1019C8000CF0A5EC13F019EF0DF0A9EC13F019EFDA
:1019D8000DF0BCC00FF0BDC010F002D8FDEF0CF048
:1019E8000500FA6EB051FD6EB151FE6EFF6AFA50F5
:1019F8001200116E126A1250000AD8B406EF0DF0E8
:101A0800E9EF0CF01150010AD8B4E9EF0CF0030A21
:101A1800D8B4E5EF0CF0010AD8B4E5EF0CF0070AEA
:101A2800D8B4E9EF0CF0E9EF0CF01200000120EE59
:101A380005F07751D9267851DA22DF50546E20EE1E
:101A480004F07751D9267851DA22DF50100DF3507F
:101A58005424796F20EE07F07751D9267851DA228D
:101A6800DF50546E20EE06F07751D9267851DA22ED
:101A7800DF50100DF35054247A6F790E176E000E54
:101A8800186E000E1A6E020E196E500EF7EC0FF05B
:101A98007B0E176E000E186E000E1A6E010E196E70
:101AA800500E74EC10F0F70E0001716FFF0E726F9C
:101AB8007CC073F0746B89EC12F03C0E0001716FFE
:101AC800FF0E726F89EC12F012000A500B10D8B496
:101AD80070EF0DF072EF0DF07BEF0DF00A500B1068
:101AE800D8A479EF0DF07BEF0DF080EF0DF00850E2
:101AF80090EC13F0B3EF0DF020EE04F00A50D92665
:101B08000B50DA22DE50DE10D8B48DEF0DF08FEFD7
:101B18000DF0AAEF0DF020EE04F00A50D9260B5074
:101B2800DA2210EE02F00A50E1260B50E222DE50D3
:101B3800E65CE650800A106EDE50800A1058D8B075
:101B4800A8EF0DF0AAEF0DF0B3EF0DF020EE02F0C4
:101B58000A50D9260B50DA22DE2A000EDD221200A6
:101B6800000E876E000E866E000E836E000E846E69
:101B7800000E856E070E8C6E88688968BF0E8A6EA7
:101B8800FC0E8B6E0F012669670E216F1969070E0F
:101B98002E6F1169000E256F000E2D6F000E186F45
:101BA800000E106F000E206F000E2C6F000E0F6FCE
:101BB800000E176F000E1F6F000E246F0E69166956
:101BC8001E692369070E2B6F0D6915691D69226946
:101BD8000F0E2A6F130E0E01B76F170EB56F0F0E8B
:101BE800FA6F100EFB6F090EFD6F140EB86F12001E
:101BF800066E010E076E0001D3B505EF0EF007EF74
:101C08000EF041EF0EF006C0CCF0D393D385D391FC
:101C18000E0ED16F010ECB6FF40ECA6FD387C40EB0
:101C2800B06F270EB16F000EBC6F000EBD6FC40EF3
:101C3800B26F270EB36F000EBE6F000EBF6FC40EDB
:101C4800B46F270EB56F000EC06F000EC16FC40EC3
:101C5800B66F270EB76F000EC26F000EC36FC00EAF
:101C6800B86F270EB96F000EC46F000EC56FD1ECA8
:101C780013F0AFEC12F0000E076E075012000E01C1
:101C8800C59BD00E066E180E076E7CEC13F00E0185
:101C9800C599B60E066E210E076E77EC13F0080E86
:101CA8009F6E900E9D6E240E9E6E400E9B6E030ED0
:101CB8009C6ED80E066E270E076E86EC13F0A80EE3
:101CC800066E270E076E81EC13F0AE0E066E270E19
:101CD800076E8BEC13F0000E0001DE6F000E596EDC
:101CE800000E586E400EE56F000E576E000E566ED1
:101CF800000E556E0E01C58B12000001D38792EFBE
:101D08000EF0B5EC13F0BEEF0EF0C5EC13F0030EB9
:101D1800BEEF0EF0B1EC13F0BEEF0EF0BCC00FF04A
:101D2800BDC010F002D8A2EF0EF00500FA6EB05157
:101D3800FD6EB151FE6EFF6AFA501200116E126A02
:101D48001250000AD8B4ABEF0EF08EEF0EF011501F
:101D5800010AD8B48EEF0EF0030AD8B485EF0EF05E
:101D6800010AD8B485EF0EF0070AD8B489EF0EF04F
:101D78008EEF0EF012000A6E06500710D8B4C7EFA7
:101D88000EF0C9EF0EF0E3EF0EF00A50020DB00EA0
:101D9800F324D96E000EF420DA6E06C0DEFF07C009
:101DA800DDFF0A50020DBC0EF324D96E000EF4209C
:101DB800DA6E08C0DEFF09C0DDFFFBEF0EF00A5047
:101DC800020DB00EF324D96E000EF420DA6EC40EA4
:101DD800DE6E270EDD6E0A50020DBC0EF324D96E9E
:101DE800000EF420DA6E000EDE6E000EDD6E1200BC
:101DF800D1EC13F00001D3A104EF0FF006EF0FF0C0
:101E080013EF0FF030EC13F00009D8B40EEF0FF019
:101E180010EF0FF013EF0FF00F0E0001D16F00015C
:101E2800D151020DCB0EF324F66EFE0EF420F76EA0
:101E3800F86A000EF8220900F5CF13F00900F5CF73
:101E480014F002D831EF0FF00500FA6E1350FD6E52
:101E58001450FE6EFF6AFA5012000001D16F120092
:101E68000001D391020ED26F42EF0FF0B5EC13F0E0
:101E780066EF0FF0B1EC13F066EF0FF0C0C00FF093
:101E8800C1C010F002D852EF0FF00500FA6EB4513D
:101E9800FD6EB551FE6EFF6AFA501200116E126A9D
:101EA8001250000AD8B45BEF0FF03EEF0FF011505C
:101EB800020AD8B43AEF0FF0010AD8B43AEF0FF09B
:101EC8003EEF0FF012006BC06FF06CC070F0000EA8
:101ED8000001D56F000ED46F85EF0FF069C04AF08E
:101EE8006AC04BF06F0E4C6E000E4D6E6DC04EF01A
:101EF8006EC04FF086EC08F04A500001D4274B50D2
:101F0800D5236FC0F6FF70C0F7FFF86A0800F550D8
:101F18000009D8A492EF0FF094EF0FF072EF0FF0D2
:101F2800D4C069F0D5C06AF012009F0E0E6EFF0E85
:101F38000F6E0CC010F00DC011F00E5010260F508F
:101F4800112211500AE11A0E105CD8A0AEEF0FF062
:101F5800B1EF0FF0010EB2EF0FF0000E126E136A20
:101F680012501310D8B4BBEF0FF0BDEF0FF0C3EF52
:101F78000FF05F0E0C140C6E0D6AC7EF0FF00CC05B
:101F88000CF00DC00DF01200066E0001E551D8B43A
:101F9800D0EF0FF0D2EF0FF0C9EF0FF00E01C5B977
:101FA800D8EF0FF0DAEF0FF0DEEF0FF006C09AFF70
:101FB800F4EF0FF0C599800E5924D96EDA6A010E34
:101FC800DA2206C0DFFF592A3F0E5964EEEF0FF000
:101FD800F0EF0FF0F2EF0FF0000E596E0001E50779
:101FE8000E01C58912001B6E1B50FCEC0DF0000998
:101FF800D8B401EF10F003EF10F0F8EF0FF017C0AE
:1020080006F018C007F019C008F01AC009F09DECD6
:1020180012F0000E0B6E000E0C6E000E0D6E000E10
:102028000E6EF8EC12F09DEC13F05EEC12F0E80680
:10203800D8B421EF10F023EF10F019EF10F01200D0
:102048005550D8B42AEF10F02CEF10F024EF10F010
:10205800000E5624D96EDA6A010EDA22DF5000012A
:10206800DE6F400E5624D96EDA6A010EDA22DF508E
:10207800016E562A3F0E566444EF10F046EF10F0FA
:1020880048EF10F0000E566E0E01C59B5506C58B25
:1020980001501200980EF66E260EF76E000EF86EBE
:1020A80001EEE0F010EE11F00900F5CFEEFFE5507B
:1020B800E150FAE101EE00F0E00EEE6AE806FDE11B
:1020C80000EEB0F02F0EEE6AE806FDE1596A586A94
:1020D800576A566A556A5A905A92000174EF09F085
:1020E8001B6E1B50FCEC0DF00009D8B47EEF10F00D
:1020F80080EF10F075EF10F017C006F018C007F069
:1021080019C008F01AC009F09DEC12F0A1EC13F008
:102118005EEC12F0E806D8B494EF10F096EF10F0E9
:102128008CEF10F01200000E176E000E166EA8EF5E
:1021380010F015C008F0096A13C00AF014C00BF0BB
:1021480069EC0DF0164A172A16501124D96E17504B
:102158001220DA6EDF50156E1550D8A4B6EF10F0C5
:10216800B8EF10F09DEF10F01200156E010E166E0C
:102178000001D3B3C2EF10F0C4EF10F0D9EF10F0A4
:10218800D383000E166E1550D8B4CDEF10F0CFEFF4
:1021980010F0D3EF10F0010ED16FD5EF10F0020E52
:1021A800D16FE8EC13F0CFEC12F016501200400E8D
:1021B8000001E561E2EF10F0E4EF10F0FAEF10F043
:1021C800800E5824D96EDA6A010EDA22DF509A6E30
:1021D800582A3F0E5864F3EF10F0F5EF10F0F7EFC0
:1021E80010F0000E586EE52BFCEF10F00E01C599AB
:1021F800120020EE02F00F50D9261050DA22DECF5E
:1022080006F0DDCF07F00FC0D9FF10C0DAFFDECF30
:1022180008F0DDCF09F09DEC12F0000E0B6E000EF9
:102228000C6E000E0D6E000E0E6E04EC13F0020E16
:10223800120020EE02F00F50D9261050DA22DECF1D
:1022480006F0DDCF07F00FC0D9FF10C0DAFFDECFF0
:1022580008F0DDCF09F09DEC12F0000E0B6E000EB9
:102268000C6E000E0D6E000E0E6E04EC13F0020ED6
:1022780012009F0E086EFF0E096E200E06100A6EE1
:10228800000E07100B6E08500A2609500B220B503F
:102298000AE11A0E0A5CD8A054EF11F057EF11F0BA
:1022A800010E58EF11F0000E066E076A12009F0E1D
:1022B800086EFF0E096E06C00AF007C00BF0085042
:1022C8000A2609500B220B500AE11A0E0A5CD8A004
:1022D80070EF11F073EF11F0010E74EF11F0000EB2
:1022E800066E076A1200BF0E086EFF0E096E06C062
:1022F8000AF007C00BF008500A2609500B220B50B1
:102308000AE11A0E0A5CD8A08CEF11F08FEF11F0D9
:10231800010E90EF11F0000E066E076A120006C05B
:1023280008F007C009F09BEF11F0064A072A06C01B
:10233800D9FF07C0DAFFDF50D8A4A5EF11F0A7EF47
:1023480011F099EF11F00850065C066E0950075815
:10235800076E12000FC006F010C007F0000E096EDD
:10236800010E086E9DEC12F0000E0B6E000E0C6E46
:10237800000E0D6E000E0E6E04EC13F0040E12002B
:102388000FC006F010C007F0000E096E020E086EAE
:102398009DEC12F0000E0B6E000E0C6E000E0D6E12
:1023A800000E0E6E04EC13F0020E12000FC006F0C1
:1023B80010C007F0000E096E010E086E9DEC12F0B9
:1023C800000E0B6E000E0C6E000E0D6E000E0E6EE3
:1023D80004EC13F0020E12000FC006F010C007F054
:1023E800000E096E020E086E9DEC12F0000E0B6EC8
:1023F800000E0C6E000E0D6E000E0E6E04EC13F047
:10240800040E12000FC006F010C007F0000E096E8F
:10241800020E086E9DEC12F0000E0B6E000E0C6E94
:10242800000E0D6E000E0E6E04EC13F0020E12007C
:102438000FC006F010C007F0000E096E010E086EFE
:102448009DEC12F0000E0B6E000E0C6E000E0D6E61
:10245800000E0E6E04EC13F0020E12000FC006F010
:1024680010C007F0000E096E010E086E9DEC12F008
:10247800000E0B6E000E0C6E000E0D6E000E0E6E32
:1024880004EC13F0040E12000FC006F010C007F0A1
:10249800000E096E020E086E9DEC12F0000E0B6E17
:1024A800000E0C6E000E0D6E000E0E6E04EC13F096
:1024B800040E1200010E066E0001D3B366EF12F08F
:1024C80068EF12F072EF12F0D395CC69D1EC13F0EB
:1024D800CEEC13F0EAEC13F0D2C006F0065012006E
:1024E800400E5724D96EDA6A010EDA2299CFDFFF3F
:1024F800572A3F0E576483EF12F085EF12F087EFEB
:1025080012F0000E576E552A1200730E0001756FF7
:10251800000E766F000E696F000E6A6F71C06BF067
:1025280072C06CF0750E6D6F000E6E6F67EC0FF079
:1025380012000001D3A7A3EF12F0A5EF12F0AEEF3F
:1025480012F006C0CDF007C0CEF008C0CFF009C029
:10255800D0F0D397120096BAB4EF12F0B6EF12F09B
:10256800BFEF12F0000E956E080E966E000E976E75
:102578003F0E936E968A1200DAEC13F0DEEC12F03E
:1025880026EC13F0B4EC0DF0ECEC12F01BEC13F0AD
:1025980043EC0EF01200D5EF12F03AEC13F0FCEC1D
:1025A8000EF00001D3B3DBEF12F0DDEF12F0D1EF44
:1025B80012F01200000E0E01E16F000EE26F000E25
:1025C800E36F000EE46F000EE56F000EE66F120079
:1025D800600E0E01D86F000EDA6F000EDC6F060E6B
:1025E800DE6F000EDD6F12000BC006F00CC007F0A6
:1025F8000DC008F00EC009F0020EBFEC0EF012007C
:102608000BC006F00CC007F00DC008F00EC009F0B2
:10261800000EBFEC0EF012000E01CABB16EF13F04D
:1026280019EF13F0010E1AEF13F0000E1200860EC8
:10263800D66E500ED46E000ED36E0E01CA9B850E58
:10264800D56E1200000E956E080E966E000E976EEF
:102658003F0E936E969A120097BC35EF13F038EF41
:1026680013F0010E39EF13F0000E12000E01CDA188
:1026780040EF13F042EF13F03AEF13F0120068EC5A
:102688000CF024EC10F00001DD6F010EDC6F12007D
:102698000000A1A2A3A4A5A6A7A8A9AAABACADAE09
:0126A800AF82
:1026AA000001D381CC51CC25C1EC13F0030E1200EA
:1026BA000001D381D880CC35C1EC13F0050E12008D
:1026CA000001D393000ED26F0E0E12000001D391B7
:1026DA00DEEC13F0040E12000001D393000ED26F49
:1026EA000E0E120006C0E3F007C0E4F0120006C0A6
:1026FA00E1F007C0E2F0120006C0F3F107C0F4F1FE
:10270A00120006C0DFF007C0E0F0120006C0F1F1C7
:10271A0007C0F2F11200076E0750C8EC0FF0120062
:10272A00066E06C0D3FF1200066E06C0D4FF120062
:10273A00000EB9EC10F01200010EB9EC10F0120004
:10274A00CBEC13F0090E1200CBEC13F00A0E1200B8
:10275A00C8EC13F0050E1200E4EC13F0000E1200A0
:10276A00E6EC13F0010E1200E6EC13F0020E120072
:10277A00E6EC13F0010E1200066E06C092FF12007C
:10278A000E01CD811200979A97881200978A97882E
:10279A0012000E01C59112000E01CD9112009D98F2
:1027AA009D88120074EC12F01200F29A12009250F4
:1027BA00120097861200050E1200010E120097846D
:1027CA0012009782120097801200969A1200120045
:10FECA0000E226BA26AA260C188E19D626021D7A10
:10FEDA002772276A2762275A2752274A27CA26687B
:10FEEA001E2D2D2D2D2D2D2D2D2D2D2D2D2D2D2D47
:10FEFA002D2D2D2D2D2D2D2D2D2D2D2D2D2D2D2D28
:10FF0A002D2D2D2D2D2D2D2D2D2D2D2D2D2D2D2D17
:10FF1A000A0D000A4461746120746F2062652077BB
:10FF2A0072697474656E20746F20454550524F4D46
:10FF3A003A0A0A0D00454550524F4D2048696768F4
:10FF4A0020416464726573733A307825780A0D002B
:10FF5A00454550524F4D204C6F772041646472657D
:10FF6A0073733A307825780A0D000A0D45455052C8
:10FF7A004F4D205265616420446174613A0A0A0D4A
:10FF8A00004552525F54696D65720A0D004F4B5F0E
:10FF9A005753320A0D0045525231300A0D0045526C
:10FFAA005231310A0D0045525231320A0D00455282
:10FFBA0052310A0D00455252320A0D00455252334F
:10FFCA000A0D00455252340A0D00455252350A0DA7
:10FFDA0000455252360A0D00455252370A0D004565
:10FFEA005252380A0D00455252390A0D003078250E
:05FFFA0078202000004A
:020000040020DA
:10000000FF0FFF0FFF0FFF0FFF0FFF0FFF0FFF0F80
:020000040030CA
:0C000000ECFFFFFF9FFFFFFFFFFFFFFF73
:00000001FF
